{
  "contractName": "MpecToken",
  "abi": [
    {
      "inputs": [],
      "stateMutability": "payable",
      "type": "constructor"
    },
    {
      "anonymous": false,
      "inputs": [
        {
          "indexed": true,
          "internalType": "address",
          "name": "owner",
          "type": "address"
        },
        {
          "indexed": true,
          "internalType": "address",
          "name": "spender",
          "type": "address"
        },
        {
          "indexed": false,
          "internalType": "uint256",
          "name": "value",
          "type": "uint256"
        }
      ],
      "name": "Approval",
      "type": "event"
    },
    {
      "anonymous": false,
      "inputs": [
        {
          "indexed": true,
          "internalType": "address",
          "name": "from",
          "type": "address"
        },
        {
          "indexed": true,
          "internalType": "address",
          "name": "to",
          "type": "address"
        },
        {
          "indexed": false,
          "internalType": "uint256",
          "name": "value",
          "type": "uint256"
        }
      ],
      "name": "Transfer",
      "type": "event"
    },
    {
      "inputs": [
        {
          "internalType": "address",
          "name": "owner",
          "type": "address"
        },
        {
          "internalType": "address",
          "name": "spender",
          "type": "address"
        }
      ],
      "name": "allowance",
      "outputs": [
        {
          "internalType": "uint256",
          "name": "",
          "type": "uint256"
        }
      ],
      "stateMutability": "view",
      "type": "function"
    },
    {
      "inputs": [
        {
          "internalType": "address",
          "name": "spender",
          "type": "address"
        },
        {
          "internalType": "uint256",
          "name": "amount",
          "type": "uint256"
        }
      ],
      "name": "approve",
      "outputs": [
        {
          "internalType": "bool",
          "name": "",
          "type": "bool"
        }
      ],
      "stateMutability": "nonpayable",
      "type": "function"
    },
    {
      "inputs": [
        {
          "internalType": "address",
          "name": "account",
          "type": "address"
        }
      ],
      "name": "balanceOf",
      "outputs": [
        {
          "internalType": "uint256",
          "name": "",
          "type": "uint256"
        }
      ],
      "stateMutability": "view",
      "type": "function"
    },
    {
      "inputs": [],
      "name": "decimals",
      "outputs": [
        {
          "internalType": "uint8",
          "name": "",
          "type": "uint8"
        }
      ],
      "stateMutability": "view",
      "type": "function"
    },
    {
      "inputs": [
        {
          "internalType": "address",
          "name": "spender",
          "type": "address"
        },
        {
          "internalType": "uint256",
          "name": "subtractedValue",
          "type": "uint256"
        }
      ],
      "name": "decreaseAllowance",
      "outputs": [
        {
          "internalType": "bool",
          "name": "",
          "type": "bool"
        }
      ],
      "stateMutability": "nonpayable",
      "type": "function"
    },
    {
      "inputs": [
        {
          "internalType": "address",
          "name": "spender",
          "type": "address"
        },
        {
          "internalType": "uint256",
          "name": "addedValue",
          "type": "uint256"
        }
      ],
      "name": "increaseAllowance",
      "outputs": [
        {
          "internalType": "bool",
          "name": "",
          "type": "bool"
        }
      ],
      "stateMutability": "nonpayable",
      "type": "function"
    },
    {
      "inputs": [],
      "name": "name",
      "outputs": [
        {
          "internalType": "string",
          "name": "",
          "type": "string"
        }
      ],
      "stateMutability": "view",
      "type": "function"
    },
    {
      "inputs": [],
      "name": "symbol",
      "outputs": [
        {
          "internalType": "string",
          "name": "",
          "type": "string"
        }
      ],
      "stateMutability": "view",
      "type": "function"
    },
    {
      "inputs": [],
      "name": "totalSupply",
      "outputs": [
        {
          "internalType": "uint256",
          "name": "",
          "type": "uint256"
        }
      ],
      "stateMutability": "view",
      "type": "function"
    },
    {
      "inputs": [
        {
          "internalType": "address",
          "name": "to",
          "type": "address"
        },
        {
          "internalType": "uint256",
          "name": "amount",
          "type": "uint256"
        }
      ],
      "name": "transfer",
      "outputs": [
        {
          "internalType": "bool",
          "name": "",
          "type": "bool"
        }
      ],
      "stateMutability": "nonpayable",
      "type": "function"
    },
    {
      "inputs": [
        {
          "internalType": "address",
          "name": "from",
          "type": "address"
        },
        {
          "internalType": "address",
          "name": "to",
          "type": "address"
        },
        {
          "internalType": "uint256",
          "name": "amount",
          "type": "uint256"
        }
      ],
      "name": "transferFrom",
      "outputs": [
        {
          "internalType": "bool",
          "name": "",
          "type": "bool"
        }
      ],
      "stateMutability": "nonpayable",
      "type": "function"
    },
    {
      "inputs": [
        {
          "internalType": "address",
          "name": "account",
          "type": "address"
        }
      ],
      "name": "getBalanceOf",
      "outputs": [
        {
          "internalType": "uint256",
          "name": "",
          "type": "uint256"
        }
      ],
      "stateMutability": "view",
      "type": "function"
    },
    {
      "inputs": [
        {
          "internalType": "address",
          "name": "to",
          "type": "address"
        },
        {
          "internalType": "uint256",
          "name": "amount",
          "type": "uint256"
        }
      ],
      "name": "transferToken",
      "outputs": [],
      "stateMutability": "nonpayable",
      "type": "function"
    },
    {
      "inputs": [
        {
          "internalType": "address",
          "name": "to",
          "type": "address"
        },
        {
          "internalType": "uint256",
          "name": "amount",
          "type": "uint256"
        }
      ],
      "name": "approveToken",
      "outputs": [],
      "stateMutability": "nonpayable",
      "type": "function"
    },
    {
      "inputs": [],
      "name": "getTotalSupply",
      "outputs": [
        {
          "internalType": "uint256",
          "name": "",
          "type": "uint256"
        }
      ],
      "stateMutability": "view",
      "type": "function"
    }
  ],
  "bytecode": "0x60806040526040518060400160405280600a81526020017f4d70656320546f6b656e000000000000000000000000000000000000000000008152506040518060400160405280600581526020017f4d504543540000000000000000000000000000000000000000000000000000008152508160039080519060200190620000889291906200024a565b508060049080519060200190620000a19291906200024a565b505050620000c1336a52b7d2dcc80cd2e4000000620000c760201b60201c565b620004a6565b600073ffffffffffffffffffffffffffffffffffffffff168273ffffffffffffffffffffffffffffffffffffffff1614156200013a576040517f08c379a0000000000000000000000000000000000000000000000000000000008152600401620001319062000332565b60405180910390fd5b6200014e600083836200024060201b60201c565b806002600082825462000162919062000382565b92505081905550806000808473ffffffffffffffffffffffffffffffffffffffff1673ffffffffffffffffffffffffffffffffffffffff1681526020019081526020016000206000828254620001b9919062000382565b925050819055508173ffffffffffffffffffffffffffffffffffffffff16600073ffffffffffffffffffffffffffffffffffffffff167fddf252ad1be2c89b69c2b068fc378daa952ba7f163c4a11628f55a4df523b3ef8360405162000220919062000354565b60405180910390a36200023c600083836200024560201b60201c565b5050565b505050565b505050565b8280546200025890620003e9565b90600052602060002090601f0160209004810192826200027c5760008555620002c8565b82601f106200029757805160ff1916838001178555620002c8565b82800160010185558215620002c8579182015b82811115620002c7578251825591602001919060010190620002aa565b5b509050620002d79190620002db565b5090565b5b80821115620002f6576000816000905550600101620002dc565b5090565b600062000309601f8362000371565b915062000316826200047d565b602082019050919050565b6200032c81620003df565b82525050565b600060208201905081810360008301526200034d81620002fa565b9050919050565b60006020820190506200036b600083018462000321565b92915050565b600082825260208201905092915050565b60006200038f82620003df565b91506200039c83620003df565b9250827fffffffffffffffffffffffffffffffffffffffffffffffffffffffffffffffff03821115620003d457620003d36200041f565b5b828201905092915050565b6000819050919050565b600060028204905060018216806200040257607f821691505b602082108114156200041957620004186200044e565b5b50919050565b7f4e487b7100000000000000000000000000000000000000000000000000000000600052601160045260246000fd5b7f4e487b7100000000000000000000000000000000000000000000000000000000600052602260045260246000fd5b7f45524332303a206d696e7420746f20746865207a65726f206164647265737300600082015250565b6113ea80620004b66000396000f3fe608060405234801561001057600080fd5b50600436106100f55760003560e01c80633950935111610097578063a457c2d711610066578063a457c2d71461029a578063a9059cbb146102ca578063c4e41b22146102fa578063dd62ed3e14610318576100f5565b806339509351146101ec57806370a082311461021c57806395d89b411461024c5780639b96eece1461026a576100f5565b80631072cbea116100d35780631072cbea1461016457806318160ddd1461018057806323b872dd1461019e578063313ce567146101ce576100f5565b8063022fc88b146100fa57806306fdde0314610116578063095ea7b314610134575b600080fd5b610114600480360381019061010f9190610ca4565b610348565b005b61011e61036d565b60405161012b9190610e56565b60405180910390f35b61014e60048036038101906101499190610ca4565b6103ff565b60405161015b9190610e3b565b60405180910390f35b61017e60048036038101906101799190610ca4565b610422565b005b610188610447565b6040516101959190610f58565b60405180910390f35b6101b860048036038101906101b39190610c55565b610451565b6040516101c59190610e3b565b60405180910390f35b6101d6610480565b6040516101e39190610f73565b60405180910390f35b61020660048036038101906102019190610ca4565b610489565b6040516102139190610e3b565b60405180910390f35b61023660048036038101906102319190610bf0565b6104c0565b6040516102439190610f58565b60405180910390f35b610254610508565b6040516102619190610e56565b60405180910390f35b610284600480360381019061027f9190610bf0565b61059a565b6040516102919190610f58565b60405180910390f35b6102b460048036038101906102af9190610ca4565b6105ac565b6040516102c19190610e3b565b60405180910390f35b6102e460048036038101906102df9190610ca4565b610623565b6040516102f19190610e3b565b60405180910390f35b610302610646565b60405161030f9190610f58565b60405180910390f35b610332600480360381019061032d9190610c19565b610655565b60405161033f9190610f58565b60405180910390f35b670de0b6b3a76400008161035c9190611000565b905061036882826103ff565b505050565b60606003805461037c906110e2565b80601f01602080910402602001604051908101604052809291908181526020018280546103a8906110e2565b80156103f55780601f106103ca576101008083540402835291602001916103f5565b820191906000526020600020905b8154815290600101906020018083116103d857829003601f168201915b5050505050905090565b60008061040a6106dc565b90506104178185856106e4565b600191505092915050565b670de0b6b3a7640000816104369190611000565b90506104428282610623565b505050565b6000600254905090565b60008061045c6106dc565b90506104698582856108af565b61047485858561093b565b60019150509392505050565b60006012905090565b6000806104946106dc565b90506104b58185856104a68589610655565b6104b09190610faa565b6106e4565b600191505092915050565b60008060008373ffffffffffffffffffffffffffffffffffffffff1673ffffffffffffffffffffffffffffffffffffffff168152602001908152602001600020549050919050565b606060048054610517906110e2565b80601f0160208091040260200160405190810160405280929190818152602001828054610543906110e2565b80156105905780601f1061056557610100808354040283529160200191610590565b820191906000526020600020905b81548152906001019060200180831161057357829003601f168201915b5050505050905090565b60006105a5826104c0565b9050919050565b6000806105b76106dc565b905060006105c58286610655565b90508381101561060a576040517f08c379a000000000000000000000000000000000000000000000000000000000815260040161060190610f38565b60405180910390fd5b61061782868684036106e4565b60019250505092915050565b60008061062e6106dc565b905061063b81858561093b565b600191505092915050565b6000610650610447565b905090565b6000600160008473ffffffffffffffffffffffffffffffffffffffff1673ffffffffffffffffffffffffffffffffffffffff16815260200190815260200160002060008373ffffffffffffffffffffffffffffffffffffffff1673ffffffffffffffffffffffffffffffffffffffff16815260200190815260200160002054905092915050565b600033905090565b600073ffffffffffffffffffffffffffffffffffffffff168373ffffffffffffffffffffffffffffffffffffffff161415610754576040517f08c379a000000000000000000000000000000000000000000000000000000000815260040161074b90610f18565b60405180910390fd5b600073ffffffffffffffffffffffffffffffffffffffff168273ffffffffffffffffffffffffffffffffffffffff1614156107c4576040517f08c379a00000000000000000000000000000000000000000000000000000000081526004016107bb90610e98565b60405180910390fd5b80600160008573ffffffffffffffffffffffffffffffffffffffff1673ffffffffffffffffffffffffffffffffffffffff16815260200190815260200160002060008473ffffffffffffffffffffffffffffffffffffffff1673ffffffffffffffffffffffffffffffffffffffff168152602001908152602001600020819055508173ffffffffffffffffffffffffffffffffffffffff168373ffffffffffffffffffffffffffffffffffffffff167f8c5be1e5ebec7d5bd14f71427d1e84f3dd0314c0f7b2291e5b200ac8c7c3b925836040516108a29190610f58565b60405180910390a3505050565b60006108bb8484610655565b90507fffffffffffffffffffffffffffffffffffffffffffffffffffffffffffffffff81146109355781811015610927576040517f08c379a000000000000000000000000000000000000000000000000000000000815260040161091e90610eb8565b60405180910390fd5b61093484848484036106e4565b5b50505050565b600073ffffffffffffffffffffffffffffffffffffffff168373ffffffffffffffffffffffffffffffffffffffff1614156109ab576040517f08c379a00000000000000000000000000000000000000000000000000000000081526004016109a290610ef8565b60405180910390fd5b600073ffffffffffffffffffffffffffffffffffffffff168273ffffffffffffffffffffffffffffffffffffffff161415610a1b576040517f08c379a0000000000000000000000000000000000000000000000000000000008152600401610a1290610e78565b60405180910390fd5b610a26838383610bbc565b60008060008573ffffffffffffffffffffffffffffffffffffffff1673ffffffffffffffffffffffffffffffffffffffff16815260200190815260200160002054905081811015610aac576040517f08c379a0000000000000000000000000000000000000000000000000000000008152600401610aa390610ed8565b60405180910390fd5b8181036000808673ffffffffffffffffffffffffffffffffffffffff1673ffffffffffffffffffffffffffffffffffffffff16815260200190815260200160002081905550816000808573ffffffffffffffffffffffffffffffffffffffff1673ffffffffffffffffffffffffffffffffffffffff1681526020019081526020016000206000828254610b3f9190610faa565b925050819055508273ffffffffffffffffffffffffffffffffffffffff168473ffffffffffffffffffffffffffffffffffffffff167fddf252ad1be2c89b69c2b068fc378daa952ba7f163c4a11628f55a4df523b3ef84604051610ba39190610f58565b60405180910390a3610bb6848484610bc1565b50505050565b505050565b505050565b600081359050610bd581611386565b92915050565b600081359050610bea8161139d565b92915050565b600060208284031215610c0257600080fd5b6000610c1084828501610bc6565b91505092915050565b60008060408385031215610c2c57600080fd5b6000610c3a85828601610bc6565b9250506020610c4b85828601610bc6565b9150509250929050565b600080600060608486031215610c6a57600080fd5b6000610c7886828701610bc6565b9350506020610c8986828701610bc6565b9250506040610c9a86828701610bdb565b9150509250925092565b60008060408385031215610cb757600080fd5b6000610cc585828601610bc6565b9250506020610cd685828601610bdb565b9150509250929050565b610ce98161106c565b82525050565b6000610cfa82610f8e565b610d048185610f99565b9350610d148185602086016110af565b610d1d81611172565b840191505092915050565b6000610d35602383610f99565b9150610d4082611183565b604082019050919050565b6000610d58602283610f99565b9150610d63826111d2565b604082019050919050565b6000610d7b601d83610f99565b9150610d8682611221565b602082019050919050565b6000610d9e602683610f99565b9150610da98261124a565b604082019050919050565b6000610dc1602583610f99565b9150610dcc82611299565b604082019050919050565b6000610de4602483610f99565b9150610def826112e8565b604082019050919050565b6000610e07602583610f99565b9150610e1282611337565b604082019050919050565b610e2681611098565b82525050565b610e35816110a2565b82525050565b6000602082019050610e506000830184610ce0565b92915050565b60006020820190508181036000830152610e708184610cef565b905092915050565b60006020820190508181036000830152610e9181610d28565b9050919050565b60006020820190508181036000830152610eb181610d4b565b9050919050565b60006020820190508181036000830152610ed181610d6e565b9050919050565b60006020820190508181036000830152610ef181610d91565b9050919050565b60006020820190508181036000830152610f1181610db4565b9050919050565b60006020820190508181036000830152610f3181610dd7565b9050919050565b60006020820190508181036000830152610f5181610dfa565b9050919050565b6000602082019050610f6d6000830184610e1d565b92915050565b6000602082019050610f886000830184610e2c565b92915050565b600081519050919050565b600082825260208201905092915050565b6000610fb582611098565b9150610fc083611098565b9250827fffffffffffffffffffffffffffffffffffffffffffffffffffffffffffffffff03821115610ff557610ff4611114565b5b828201905092915050565b600061100b82611098565b915061101683611098565b9250817fffffffffffffffffffffffffffffffffffffffffffffffffffffffffffffffff048311821515161561104f5761104e611114565b5b828202905092915050565b600061106582611078565b9050919050565b60008115159050919050565b600073ffffffffffffffffffffffffffffffffffffffff82169050919050565b6000819050919050565b600060ff82169050919050565b60005b838110156110cd5780820151818401526020810190506110b2565b838111156110dc576000848401525b50505050565b600060028204905060018216806110fa57607f821691505b6020821081141561110e5761110d611143565b5b50919050565b7f4e487b7100000000000000000000000000000000000000000000000000000000600052601160045260246000fd5b7f4e487b7100000000000000000000000000000000000000000000000000000000600052602260045260246000fd5b6000601f19601f8301169050919050565b7f45524332303a207472616e7366657220746f20746865207a65726f206164647260008201527f6573730000000000000000000000000000000000000000000000000000000000602082015250565b7f45524332303a20617070726f766520746f20746865207a65726f20616464726560008201527f7373000000000000000000000000000000000000000000000000000000000000602082015250565b7f45524332303a20696e73756666696369656e7420616c6c6f77616e6365000000600082015250565b7f45524332303a207472616e7366657220616d6f756e742065786365656473206260008201527f616c616e63650000000000000000000000000000000000000000000000000000602082015250565b7f45524332303a207472616e736665722066726f6d20746865207a65726f20616460008201527f6472657373000000000000000000000000000000000000000000000000000000602082015250565b7f45524332303a20617070726f76652066726f6d20746865207a65726f2061646460008201527f7265737300000000000000000000000000000000000000000000000000000000602082015250565b7f45524332303a2064656372656173656420616c6c6f77616e63652062656c6f7760008201527f207a65726f000000000000000000000000000000000000000000000000000000602082015250565b61138f8161105a565b811461139a57600080fd5b50565b6113a681611098565b81146113b157600080fd5b5056fea26469706673582212202b1bba5e71f50c8cb25752710f3d38bda5513da781c3d91d17a808b38729bc7d64736f6c63430008040033",
  "immutableReferences": {},
  "source": "pragma solidity ^0.8.3;\nimport \"@openzeppelin/contracts/token/ERC20/ERC20.sol\";\n\ncontract MpecToken is ERC20{\n\n    constructor() ERC20(\"Mpec Token\", \"MPECT\") payable{\n        _mint(msg.sender, 100_000_000_000_000_000_000_000_000);\n    }\n\n    function getBalanceOf(address account) view external returns (uint256) {\n        return balanceOf(account);\n    }\n\n    function transferToken( address to, uint256 amount) external {\n        amount = amount * 1_000_000_000_000_000_000;\n        transfer(to, amount);\n    }\n\n    function approveToken(address to, uint amount) external{\n        amount = amount * 1_000_000_000_000_000_000;\n        approve(to, amount);\n    }\n\n    function getTotalSupply() external view returns (uint){\n        return totalSupply();\n    }\n}",
  "sourcePath": "E:\\IdeaProject\\NftMarketplace\\nftmarket-smartcontract\\contracts\\MpecToken.sol",
  "compiler": {
    "name": "solc",
    "version": "0.8.4+commit.c7e474f2.Emscripten.clang"
  },
  "schemaVersion": "3.4.7",
  "updatedAt": "2022-07-26T10:31:51.615Z",
  "devdoc": {
    "kind": "dev",
    "methods": {
      "allowance(address,address)": {
        "details": "See {IERC20-allowance}."
      },
      "approve(address,uint256)": {
        "details": "See {IERC20-approve}. NOTE: If `amount` is the maximum `uint256`, the allowance is not updated on `transferFrom`. This is semantically equivalent to an infinite approval. Requirements: - `spender` cannot be the zero address."
      },
      "balanceOf(address)": {
        "details": "See {IERC20-balanceOf}."
      },
      "decimals()": {
        "details": "Returns the number of decimals used to get its user representation. For example, if `decimals` equals `2`, a balance of `505` tokens should be displayed to a user as `5.05` (`505 / 10 ** 2`). Tokens usually opt for a value of 18, imitating the relationship between Ether and Wei. This is the value {ERC20} uses, unless this function is overridden; NOTE: This information is only used for _display_ purposes: it in no way affects any of the arithmetic of the contract, including {IERC20-balanceOf} and {IERC20-transfer}."
      },
      "decreaseAllowance(address,uint256)": {
        "details": "Atomically decreases the allowance granted to `spender` by the caller. This is an alternative to {approve} that can be used as a mitigation for problems described in {IERC20-approve}. Emits an {Approval} event indicating the updated allowance. Requirements: - `spender` cannot be the zero address. - `spender` must have allowance for the caller of at least `subtractedValue`."
      },
      "increaseAllowance(address,uint256)": {
        "details": "Atomically increases the allowance granted to `spender` by the caller. This is an alternative to {approve} that can be used as a mitigation for problems described in {IERC20-approve}. Emits an {Approval} event indicating the updated allowance. Requirements: - `spender` cannot be the zero address."
      },
      "name()": {
        "details": "Returns the name of the token."
      },
      "symbol()": {
        "details": "Returns the symbol of the token, usually a shorter version of the name."
      },
      "totalSupply()": {
        "details": "See {IERC20-totalSupply}."
      },
      "transfer(address,uint256)": {
        "details": "See {IERC20-transfer}. Requirements: - `to` cannot be the zero address. - the caller must have a balance of at least `amount`."
      },
      "transferFrom(address,address,uint256)": {
        "details": "See {IERC20-transferFrom}. Emits an {Approval} event indicating the updated allowance. This is not required by the EIP. See the note at the beginning of {ERC20}. NOTE: Does not update the allowance if the current allowance is the maximum `uint256`. Requirements: - `from` and `to` cannot be the zero address. - `from` must have a balance of at least `amount`. - the caller must have allowance for ``from``'s tokens of at least `amount`."
      }
    },
    "version": 1
  },
  "userdoc": {
    "kind": "user",
    "methods": {},
    "version": 1
  }
}