{
  "contractName": "NFTDefaultCollection",
  "abi": [
    {
      "inputs": [
        {
          "internalType": "string",
          "name": "_name",
          "type": "string"
        },
        {
          "internalType": "string",
          "name": "_symbol",
          "type": "string"
        }
      ],
      "stateMutability": "nonpayable",
      "type": "constructor"
    },
    {
      "anonymous": false,
      "inputs": [
        {
          "indexed": true,
          "internalType": "address",
          "name": "owner",
          "type": "address"
        },
        {
          "indexed": true,
          "internalType": "address",
          "name": "approved",
          "type": "address"
        },
        {
          "indexed": true,
          "internalType": "uint256",
          "name": "tokenId",
          "type": "uint256"
        }
      ],
      "name": "Approval",
      "type": "event"
    },
    {
      "anonymous": false,
      "inputs": [
        {
          "indexed": true,
          "internalType": "address",
          "name": "owner",
          "type": "address"
        },
        {
          "indexed": true,
          "internalType": "address",
          "name": "operator",
          "type": "address"
        },
        {
          "indexed": false,
          "internalType": "bool",
          "name": "approved",
          "type": "bool"
        }
      ],
      "name": "ApprovalForAll",
      "type": "event"
    },
    {
      "anonymous": false,
      "inputs": [
        {
          "indexed": true,
          "internalType": "address",
          "name": "from",
          "type": "address"
        },
        {
          "indexed": true,
          "internalType": "address",
          "name": "to",
          "type": "address"
        },
        {
          "indexed": true,
          "internalType": "uint256",
          "name": "tokenId",
          "type": "uint256"
        }
      ],
      "name": "Transfer",
      "type": "event"
    },
    {
      "anonymous": false,
      "inputs": [
        {
          "indexed": false,
          "internalType": "address",
          "name": "sender",
          "type": "address"
        },
        {
          "indexed": false,
          "internalType": "string",
          "name": "tokenURI",
          "type": "string"
        },
        {
          "indexed": false,
          "internalType": "uint256",
          "name": "tokenId",
          "type": "uint256"
        }
      ],
      "name": "mintNft",
      "type": "event"
    },
    {
      "inputs": [
        {
          "internalType": "address",
          "name": "to",
          "type": "address"
        },
        {
          "internalType": "uint256",
          "name": "tokenId",
          "type": "uint256"
        }
      ],
      "name": "approve",
      "outputs": [],
      "stateMutability": "nonpayable",
      "type": "function"
    },
    {
      "inputs": [
        {
          "internalType": "address",
          "name": "owner",
          "type": "address"
        }
      ],
      "name": "balanceOf",
      "outputs": [
        {
          "internalType": "uint256",
          "name": "",
          "type": "uint256"
        }
      ],
      "stateMutability": "view",
      "type": "function"
    },
    {
      "inputs": [
        {
          "internalType": "uint256",
          "name": "tokenId",
          "type": "uint256"
        }
      ],
      "name": "getApproved",
      "outputs": [
        {
          "internalType": "address",
          "name": "",
          "type": "address"
        }
      ],
      "stateMutability": "view",
      "type": "function"
    },
    {
      "inputs": [
        {
          "internalType": "address",
          "name": "owner",
          "type": "address"
        },
        {
          "internalType": "address",
          "name": "operator",
          "type": "address"
        }
      ],
      "name": "isApprovedForAll",
      "outputs": [
        {
          "internalType": "bool",
          "name": "",
          "type": "bool"
        }
      ],
      "stateMutability": "view",
      "type": "function"
    },
    {
      "inputs": [],
      "name": "name",
      "outputs": [
        {
          "internalType": "string",
          "name": "",
          "type": "string"
        }
      ],
      "stateMutability": "view",
      "type": "function"
    },
    {
      "inputs": [
        {
          "internalType": "uint256",
          "name": "tokenId",
          "type": "uint256"
        }
      ],
      "name": "ownerOf",
      "outputs": [
        {
          "internalType": "address",
          "name": "",
          "type": "address"
        }
      ],
      "stateMutability": "view",
      "type": "function"
    },
    {
      "inputs": [
        {
          "internalType": "address",
          "name": "from",
          "type": "address"
        },
        {
          "internalType": "address",
          "name": "to",
          "type": "address"
        },
        {
          "internalType": "uint256",
          "name": "tokenId",
          "type": "uint256"
        }
      ],
      "name": "safeTransferFrom",
      "outputs": [],
      "stateMutability": "nonpayable",
      "type": "function"
    },
    {
      "inputs": [
        {
          "internalType": "address",
          "name": "from",
          "type": "address"
        },
        {
          "internalType": "address",
          "name": "to",
          "type": "address"
        },
        {
          "internalType": "uint256",
          "name": "tokenId",
          "type": "uint256"
        },
        {
          "internalType": "bytes",
          "name": "_data",
          "type": "bytes"
        }
      ],
      "name": "safeTransferFrom",
      "outputs": [],
      "stateMutability": "nonpayable",
      "type": "function"
    },
    {
      "inputs": [
        {
          "internalType": "address",
          "name": "operator",
          "type": "address"
        },
        {
          "internalType": "bool",
          "name": "approved",
          "type": "bool"
        }
      ],
      "name": "setApprovalForAll",
      "outputs": [],
      "stateMutability": "nonpayable",
      "type": "function"
    },
    {
      "inputs": [
        {
          "internalType": "bytes4",
          "name": "interfaceId",
          "type": "bytes4"
        }
      ],
      "name": "supportsInterface",
      "outputs": [
        {
          "internalType": "bool",
          "name": "",
          "type": "bool"
        }
      ],
      "stateMutability": "view",
      "type": "function"
    },
    {
      "inputs": [],
      "name": "symbol",
      "outputs": [
        {
          "internalType": "string",
          "name": "",
          "type": "string"
        }
      ],
      "stateMutability": "view",
      "type": "function"
    },
    {
      "inputs": [
        {
          "internalType": "uint256",
          "name": "tokenId",
          "type": "uint256"
        }
      ],
      "name": "tokenURI",
      "outputs": [
        {
          "internalType": "string",
          "name": "",
          "type": "string"
        }
      ],
      "stateMutability": "view",
      "type": "function"
    },
    {
      "inputs": [
        {
          "internalType": "address",
          "name": "from",
          "type": "address"
        },
        {
          "internalType": "address",
          "name": "to",
          "type": "address"
        },
        {
          "internalType": "uint256",
          "name": "tokenId",
          "type": "uint256"
        }
      ],
      "name": "transferFrom",
      "outputs": [],
      "stateMutability": "nonpayable",
      "type": "function"
    },
    {
      "inputs": [
        {
          "internalType": "string",
          "name": "tokenURI",
          "type": "string"
        }
      ],
      "name": "mint",
      "outputs": [
        {
          "internalType": "uint256",
          "name": "",
          "type": "uint256"
        }
      ],
      "stateMutability": "nonpayable",
      "type": "function"
    },
    {
      "inputs": [
        {
          "internalType": "address",
          "name": "from",
          "type": "address"
        },
        {
          "internalType": "address",
          "name": "to",
          "type": "address"
        },
        {
          "internalType": "uint256",
          "name": "tokenId",
          "type": "uint256"
        }
      ],
      "name": "transferItem",
      "outputs": [],
      "stateMutability": "nonpayable",
      "type": "function"
    }
  ],
  "bytecode": "0x60806040523480156200001157600080fd5b5060405162003079380380620030798339818101604052810190620000379190620001d8565b8181816000908051906020019062000051929190620000b6565b5080600190805190602001906200006a929190620000b6565b50505033600860006101000a81548173ffffffffffffffffffffffffffffffffffffffff021916908373ffffffffffffffffffffffffffffffffffffffff1602179055505050620003bb565b828054620000c490620002e0565b90600052602060002090601f016020900481019282620000e8576000855562000134565b82601f106200010357805160ff191683800117855562000134565b8280016001018555821562000134579182015b828111156200013357825182559160200191906001019062000116565b5b50905062000143919062000147565b5090565b5b808211156200016257600081600090555060010162000148565b5090565b60006200017d620001778462000274565b6200024b565b9050828152602081018484840111156200019657600080fd5b620001a3848285620002aa565b509392505050565b600082601f830112620001bd57600080fd5b8151620001cf84826020860162000166565b91505092915050565b60008060408385031215620001ec57600080fd5b600083015167ffffffffffffffff8111156200020757600080fd5b6200021585828601620001ab565b925050602083015167ffffffffffffffff8111156200023357600080fd5b6200024185828601620001ab565b9150509250929050565b6000620002576200026a565b905062000265828262000316565b919050565b6000604051905090565b600067ffffffffffffffff8211156200029257620002916200037b565b5b6200029d82620003aa565b9050602081019050919050565b60005b83811015620002ca578082015181840152602081019050620002ad565b83811115620002da576000848401525b50505050565b60006002820490506001821680620002f957607f821691505b6020821081141562000310576200030f6200034c565b5b50919050565b6200032182620003aa565b810181811067ffffffffffffffff821117156200034357620003426200037b565b5b80604052505050565b7f4e487b7100000000000000000000000000000000000000000000000000000000600052602260045260246000fd5b7f4e487b7100000000000000000000000000000000000000000000000000000000600052604160045260246000fd5b6000601f19601f8301169050919050565b612cae80620003cb6000396000f3fe608060405234801561001057600080fd5b50600436106100f55760003560e01c80636352211e11610097578063b88d4fde11610066578063b88d4fde14610282578063c87b56dd1461029e578063d85d3d27146102ce578063e985e9c5146102fe576100f5565b80636352211e146101e857806370a082311461021857806395d89b4114610248578063a22cb46514610266576100f5565b8063095ea7b3116100d3578063095ea7b31461017857806323b872dd1461019457806342842e0e146101b05780636295c61a146101cc576100f5565b806301ffc9a7146100fa57806306fdde031461012a578063081812fc14610148575b600080fd5b610114600480360381019061010f9190611cdc565b61032e565b6040516101219190612161565b60405180910390f35b610132610410565b60405161013f919061217c565b60405180910390f35b610162600480360381019061015d9190611d6f565b6104a2565b60405161016f91906120bc565b60405180910390f35b610192600480360381019061018d9190611ca0565b610527565b005b6101ae60048036038101906101a99190611b9a565b61063f565b005b6101ca60048036038101906101c59190611b9a565b61069f565b005b6101e660048036038101906101e19190611b9a565b6106bf565b005b61020260048036038101906101fd9190611d6f565b6106cf565b60405161020f91906120bc565b60405180910390f35b610232600480360381019061022d9190611b35565b610781565b60405161023f919061239e565b60405180910390f35b610250610839565b60405161025d919061217c565b60405180910390f35b610280600480360381019061027b9190611c64565b6108cb565b005b61029c60048036038101906102979190611be9565b6108e1565b005b6102b860048036038101906102b39190611d6f565b610943565b6040516102c5919061217c565b60405180910390f35b6102e860048036038101906102e39190611d2e565b610a95565b6040516102f5919061239e565b60405180910390f35b61031860048036038101906103139190611b5e565b610b06565b6040516103259190612161565b60405180910390f35b60007f80ac58cd000000000000000000000000000000000000000000000000000000007bffffffffffffffffffffffffffffffffffffffffffffffffffffffff1916827bffffffffffffffffffffffffffffffffffffffffffffffffffffffff191614806103f957507f5b5e139f000000000000000000000000000000000000000000000000000000007bffffffffffffffffffffffffffffffffffffffffffffffffffffffff1916827bffffffffffffffffffffffffffffffffffffffffffffffffffffffff1916145b80610409575061040882610b9a565b5b9050919050565b60606000805461041f906125f4565b80601f016020809104026020016040519081016040528092919081815260200182805461044b906125f4565b80156104985780601f1061046d57610100808354040283529160200191610498565b820191906000526020600020905b81548152906001019060200180831161047b57829003601f168201915b5050505050905090565b60006104ad82610c04565b6104ec576040517f08c379a00000000000000000000000000000000000000000000000000000000081526004016104e39061231e565b60405180910390fd5b6004600083815260200190815260200160002060009054906101000a900473ffffffffffffffffffffffffffffffffffffffff169050919050565b6000610532826106cf565b90508073ffffffffffffffffffffffffffffffffffffffff168373ffffffffffffffffffffffffffffffffffffffff1614156105a3576040517f08c379a000000000000000000000000000000000000000000000000000000000815260040161059a9061235e565b60405180910390fd5b8073ffffffffffffffffffffffffffffffffffffffff166105c2610c70565b73ffffffffffffffffffffffffffffffffffffffff1614806105f157506105f0816105eb610c70565b610b06565b5b610630576040517f08c379a00000000000000000000000000000000000000000000000000000000081526004016106279061225e565b60405180910390fd5b61063a8383610c78565b505050565b61065061064a610c70565b82610d31565b61068f576040517f08c379a00000000000000000000000000000000000000000000000000000000081526004016106869061237e565b60405180910390fd5b61069a838383610e0f565b505050565b6106ba838383604051806020016040528060008152506108e1565b505050565b6106ca83838361063f565b505050565b6000806002600084815260200190815260200160002060009054906101000a900473ffffffffffffffffffffffffffffffffffffffff169050600073ffffffffffffffffffffffffffffffffffffffff168173ffffffffffffffffffffffffffffffffffffffff161415610778576040517f08c379a000000000000000000000000000000000000000000000000000000000815260040161076f9061229e565b60405180910390fd5b80915050919050565b60008073ffffffffffffffffffffffffffffffffffffffff168273ffffffffffffffffffffffffffffffffffffffff1614156107f2576040517f08c379a00000000000000000000000000000000000000000000000000000000081526004016107e99061227e565b60405180910390fd5b600360008373ffffffffffffffffffffffffffffffffffffffff1673ffffffffffffffffffffffffffffffffffffffff168152602001908152602001600020549050919050565b606060018054610848906125f4565b80601f0160208091040260200160405190810160405280929190818152602001828054610874906125f4565b80156108c15780601f10610896576101008083540402835291602001916108c1565b820191906000526020600020905b8154815290600101906020018083116108a457829003601f168201915b5050505050905090565b6108dd6108d6610c70565b8383611076565b5050565b6108f26108ec610c70565b83610d31565b610931576040517f08c379a00000000000000000000000000000000000000000000000000000000081526004016109289061237e565b60405180910390fd5b61093d848484846111e3565b50505050565b606061094e82610c04565b61098d576040517f08c379a0000000000000000000000000000000000000000000000000000000008152600401610984906122fe565b60405180910390fd5b60006006600084815260200190815260200160002080546109ad906125f4565b80601f01602080910402602001604051908101604052809291908181526020018280546109d9906125f4565b8015610a265780601f106109fb57610100808354040283529160200191610a26565b820191906000526020600020905b815481529060010190602001808311610a0957829003601f168201915b505050505090506000610a3761123f565b9050600081511415610a4d578192505050610a90565b600082511115610a82578082604051602001610a6a929190612098565b60405160208183030381529060405292505050610a90565b610a8b84611256565b925050505b919050565b600080610aa260076112fd565b9050610aae338261130b565b610ab88184611329565b7ff809ece6df28887d6065dbf1a927e8efce49c4ee10944dcb8005e8639879c5b0338483604051610aeb93929190612123565b60405180910390a1610afd600761139d565b80915050919050565b6000600560008473ffffffffffffffffffffffffffffffffffffffff1673ffffffffffffffffffffffffffffffffffffffff16815260200190815260200160002060008373ffffffffffffffffffffffffffffffffffffffff1673ffffffffffffffffffffffffffffffffffffffff16815260200190815260200160002060009054906101000a900460ff16905092915050565b60007f01ffc9a7000000000000000000000000000000000000000000000000000000007bffffffffffffffffffffffffffffffffffffffffffffffffffffffff1916827bffffffffffffffffffffffffffffffffffffffffffffffffffffffff1916149050919050565b60008073ffffffffffffffffffffffffffffffffffffffff166002600084815260200190815260200160002060009054906101000a900473ffffffffffffffffffffffffffffffffffffffff1673ffffffffffffffffffffffffffffffffffffffff1614159050919050565b600033905090565b816004600083815260200190815260200160002060006101000a81548173ffffffffffffffffffffffffffffffffffffffff021916908373ffffffffffffffffffffffffffffffffffffffff160217905550808273ffffffffffffffffffffffffffffffffffffffff16610ceb836106cf565b73ffffffffffffffffffffffffffffffffffffffff167f8c5be1e5ebec7d5bd14f71427d1e84f3dd0314c0f7b2291e5b200ac8c7c3b92560405160405180910390a45050565b6000610d3c82610c04565b610d7b576040517f08c379a0000000000000000000000000000000000000000000000000000000008152600401610d729061223e565b60405180910390fd5b6000610d86836106cf565b90508073ffffffffffffffffffffffffffffffffffffffff168473ffffffffffffffffffffffffffffffffffffffff161480610dc85750610dc78185610b06565b5b80610e0657508373ffffffffffffffffffffffffffffffffffffffff16610dee846104a2565b73ffffffffffffffffffffffffffffffffffffffff16145b91505092915050565b8273ffffffffffffffffffffffffffffffffffffffff16610e2f826106cf565b73ffffffffffffffffffffffffffffffffffffffff1614610e85576040517f08c379a0000000000000000000000000000000000000000000000000000000008152600401610e7c906121be565b60405180910390fd5b600073ffffffffffffffffffffffffffffffffffffffff168273ffffffffffffffffffffffffffffffffffffffff161415610ef5576040517f08c379a0000000000000000000000000000000000000000000000000000000008152600401610eec906121fe565b60405180910390fd5b610f008383836113b3565b610f0b600082610c78565b6001600360008573ffffffffffffffffffffffffffffffffffffffff1673ffffffffffffffffffffffffffffffffffffffff1681526020019081526020016000206000828254610f5b919061250a565b925050819055506001600360008473ffffffffffffffffffffffffffffffffffffffff1673ffffffffffffffffffffffffffffffffffffffff1681526020019081526020016000206000828254610fb29190612483565b92505081905550816002600083815260200190815260200160002060006101000a81548173ffffffffffffffffffffffffffffffffffffffff021916908373ffffffffffffffffffffffffffffffffffffffff160217905550808273ffffffffffffffffffffffffffffffffffffffff168473ffffffffffffffffffffffffffffffffffffffff167fddf252ad1be2c89b69c2b068fc378daa952ba7f163c4a11628f55a4df523b3ef60405160405180910390a46110718383836113b8565b505050565b8173ffffffffffffffffffffffffffffffffffffffff168373ffffffffffffffffffffffffffffffffffffffff1614156110e5576040517f08c379a00000000000000000000000000000000000000000000000000000000081526004016110dc9061221e565b60405180910390fd5b80600560008573ffffffffffffffffffffffffffffffffffffffff1673ffffffffffffffffffffffffffffffffffffffff16815260200190815260200160002060008473ffffffffffffffffffffffffffffffffffffffff1673ffffffffffffffffffffffffffffffffffffffff16815260200190815260200160002060006101000a81548160ff0219169083151502179055508173ffffffffffffffffffffffffffffffffffffffff168373ffffffffffffffffffffffffffffffffffffffff167f17307eab39ab6107e8899845ad3d59bd9653f200f220920489ca2b5937696c31836040516111d69190612161565b60405180910390a3505050565b6111ee848484610e0f565b6111fa848484846113bd565b611239576040517f08c379a00000000000000000000000000000000000000000000000000000000081526004016112309061219e565b60405180910390fd5b50505050565b606060405180602001604052806000815250905090565b606061126182610c04565b6112a0576040517f08c379a00000000000000000000000000000000000000000000000000000000081526004016112979061233e565b60405180910390fd5b60006112aa61123f565b905060008151116112ca57604051806020016040528060008152506112f5565b806112d484611554565b6040516020016112e5929190612098565b6040516020818303038152906040525b915050919050565b600081600001549050919050565b611325828260405180602001604052806000815250611701565b5050565b61133282610c04565b611371576040517f08c379a0000000000000000000000000000000000000000000000000000000008152600401611368906122be565b60405180910390fd5b80600660008481526020019081526020016000209080519060200190611398929190611959565b505050565b6001816000016000828254019250508190555050565b505050565b505050565b60006113de8473ffffffffffffffffffffffffffffffffffffffff1661175c565b15611547578373ffffffffffffffffffffffffffffffffffffffff1663150b7a02611407610c70565b8786866040518563ffffffff1660e01b815260040161142994939291906120d7565b602060405180830381600087803b15801561144357600080fd5b505af192505050801561147457506040513d601f19601f820116820180604052508101906114719190611d05565b60015b6114f7573d80600081146114a4576040519150601f19603f3d011682016040523d82523d6000602084013e6114a9565b606091505b506000815114156114ef576040517f08c379a00000000000000000000000000000000000000000000000000000000081526004016114e69061219e565b60405180910390fd5b805181602001fd5b63150b7a0260e01b7bffffffffffffffffffffffffffffffffffffffffffffffffffffffff1916817bffffffffffffffffffffffffffffffffffffffffffffffffffffffff19161491505061154c565b600190505b949350505050565b6060600082141561159c576040518060400160405280600181526020017f300000000000000000000000000000000000000000000000000000000000000081525090506116fc565b600082905060005b600082146115ce5780806115b790612657565b915050600a826115c791906124d9565b91506115a4565b60008167ffffffffffffffff811115611610577f4e487b7100000000000000000000000000000000000000000000000000000000600052604160045260246000fd5b6040519080825280601f01601f1916602001820160405280156116425781602001600182028036833780820191505090505b5090505b600085146116f55760018261165b919061250a565b9150600a8561166a91906126a0565b60306116769190612483565b60f81b8183815181106116b2577f4e487b7100000000000000000000000000000000000000000000000000000000600052603260045260246000fd5b60200101907effffffffffffffffffffffffffffffffffffffffffffffffffffffffffffff1916908160001a905350600a856116ee91906124d9565b9450611646565b8093505050505b919050565b61170b838361177f565b61171860008484846113bd565b611757576040517f08c379a000000000000000000000000000000000000000000000000000000000815260040161174e9061219e565b60405180910390fd5b505050565b6000808273ffffffffffffffffffffffffffffffffffffffff163b119050919050565b600073ffffffffffffffffffffffffffffffffffffffff168273ffffffffffffffffffffffffffffffffffffffff1614156117ef576040517f08c379a00000000000000000000000000000000000000000000000000000000081526004016117e6906122de565b60405180910390fd5b6117f881610c04565b15611838576040517f08c379a000000000000000000000000000000000000000000000000000000000815260040161182f906121de565b60405180910390fd5b611844600083836113b3565b6001600360008473ffffffffffffffffffffffffffffffffffffffff1673ffffffffffffffffffffffffffffffffffffffff16815260200190815260200160002060008282546118949190612483565b92505081905550816002600083815260200190815260200160002060006101000a81548173ffffffffffffffffffffffffffffffffffffffff021916908373ffffffffffffffffffffffffffffffffffffffff160217905550808273ffffffffffffffffffffffffffffffffffffffff16600073ffffffffffffffffffffffffffffffffffffffff167fddf252ad1be2c89b69c2b068fc378daa952ba7f163c4a11628f55a4df523b3ef60405160405180910390a4611955600083836113b8565b5050565b828054611965906125f4565b90600052602060002090601f01602090048101928261198757600085556119ce565b82601f106119a057805160ff19168380011785556119ce565b828001600101855582156119ce579182015b828111156119cd5782518255916020019190600101906119b2565b5b5090506119db91906119df565b5090565b5b808211156119f85760008160009055506001016119e0565b5090565b6000611a0f611a0a846123de565b6123b9565b905082815260208101848484011115611a2757600080fd5b611a328482856125b2565b509392505050565b6000611a4d611a488461240f565b6123b9565b905082815260208101848484011115611a6557600080fd5b611a708482856125b2565b509392505050565b600081359050611a8781612c1c565b92915050565b600081359050611a9c81612c33565b92915050565b600081359050611ab181612c4a565b92915050565b600081519050611ac681612c4a565b92915050565b600082601f830112611add57600080fd5b8135611aed8482602086016119fc565b91505092915050565b600082601f830112611b0757600080fd5b8135611b17848260208601611a3a565b91505092915050565b600081359050611b2f81612c61565b92915050565b600060208284031215611b4757600080fd5b6000611b5584828501611a78565b91505092915050565b60008060408385031215611b7157600080fd5b6000611b7f85828601611a78565b9250506020611b9085828601611a78565b9150509250929050565b600080600060608486031215611baf57600080fd5b6000611bbd86828701611a78565b9350506020611bce86828701611a78565b9250506040611bdf86828701611b20565b9150509250925092565b60008060008060808587031215611bff57600080fd5b6000611c0d87828801611a78565b9450506020611c1e87828801611a78565b9350506040611c2f87828801611b20565b925050606085013567ffffffffffffffff811115611c4c57600080fd5b611c5887828801611acc565b91505092959194509250565b60008060408385031215611c7757600080fd5b6000611c8585828601611a78565b9250506020611c9685828601611a8d565b9150509250929050565b60008060408385031215611cb357600080fd5b6000611cc185828601611a78565b9250506020611cd285828601611b20565b9150509250929050565b600060208284031215611cee57600080fd5b6000611cfc84828501611aa2565b91505092915050565b600060208284031215611d1757600080fd5b6000611d2584828501611ab7565b91505092915050565b600060208284031215611d4057600080fd5b600082013567ffffffffffffffff811115611d5a57600080fd5b611d6684828501611af6565b91505092915050565b600060208284031215611d8157600080fd5b6000611d8f84828501611b20565b91505092915050565b611da18161253e565b82525050565b611db081612550565b82525050565b6000611dc182612440565b611dcb8185612456565b9350611ddb8185602086016125c1565b611de48161278d565b840191505092915050565b6000611dfa8261244b565b611e048185612467565b9350611e148185602086016125c1565b611e1d8161278d565b840191505092915050565b6000611e338261244b565b611e3d8185612478565b9350611e4d8185602086016125c1565b80840191505092915050565b6000611e66603283612467565b9150611e718261279e565b604082019050919050565b6000611e89602583612467565b9150611e94826127ed565b604082019050919050565b6000611eac601c83612467565b9150611eb78261283c565b602082019050919050565b6000611ecf602483612467565b9150611eda82612865565b604082019050919050565b6000611ef2601983612467565b9150611efd826128b4565b602082019050919050565b6000611f15602c83612467565b9150611f20826128dd565b604082019050919050565b6000611f38603883612467565b9150611f438261292c565b604082019050919050565b6000611f5b602a83612467565b9150611f668261297b565b604082019050919050565b6000611f7e602983612467565b9150611f89826129ca565b604082019050919050565b6000611fa1602e83612467565b9150611fac82612a19565b604082019050919050565b6000611fc4602083612467565b9150611fcf82612a68565b602082019050919050565b6000611fe7603183612467565b9150611ff282612a91565b604082019050919050565b600061200a602c83612467565b915061201582612ae0565b604082019050919050565b600061202d602f83612467565b915061203882612b2f565b604082019050919050565b6000612050602183612467565b915061205b82612b7e565b604082019050919050565b6000612073603183612467565b915061207e82612bcd565b604082019050919050565b612092816125a8565b82525050565b60006120a48285611e28565b91506120b08284611e28565b91508190509392505050565b60006020820190506120d16000830184611d98565b92915050565b60006080820190506120ec6000830187611d98565b6120f96020830186611d98565b6121066040830185612089565b81810360608301526121188184611db6565b905095945050505050565b60006060820190506121386000830186611d98565b818103602083015261214a8185611def565b90506121596040830184612089565b949350505050565b60006020820190506121766000830184611da7565b92915050565b600060208201905081810360008301526121968184611def565b905092915050565b600060208201905081810360008301526121b781611e59565b9050919050565b600060208201905081810360008301526121d781611e7c565b9050919050565b600060208201905081810360008301526121f781611e9f565b9050919050565b6000602082019050818103600083015261221781611ec2565b9050919050565b6000602082019050818103600083015261223781611ee5565b9050919050565b6000602082019050818103600083015261225781611f08565b9050919050565b6000602082019050818103600083015261227781611f2b565b9050919050565b6000602082019050818103600083015261229781611f4e565b9050919050565b600060208201905081810360008301526122b781611f71565b9050919050565b600060208201905081810360008301526122d781611f94565b9050919050565b600060208201905081810360008301526122f781611fb7565b9050919050565b6000602082019050818103600083015261231781611fda565b9050919050565b6000602082019050818103600083015261233781611ffd565b9050919050565b6000602082019050818103600083015261235781612020565b9050919050565b6000602082019050818103600083015261237781612043565b9050919050565b6000602082019050818103600083015261239781612066565b9050919050565b60006020820190506123b36000830184612089565b92915050565b60006123c36123d4565b90506123cf8282612626565b919050565b6000604051905090565b600067ffffffffffffffff8211156123f9576123f861275e565b5b6124028261278d565b9050602081019050919050565b600067ffffffffffffffff82111561242a5761242961275e565b5b6124338261278d565b9050602081019050919050565b600081519050919050565b600081519050919050565b600082825260208201905092915050565b600082825260208201905092915050565b600081905092915050565b600061248e826125a8565b9150612499836125a8565b9250827fffffffffffffffffffffffffffffffffffffffffffffffffffffffffffffffff038211156124ce576124cd6126d1565b5b828201905092915050565b60006124e4826125a8565b91506124ef836125a8565b9250826124ff576124fe612700565b5b828204905092915050565b6000612515826125a8565b9150612520836125a8565b925082821015612533576125326126d1565b5b828203905092915050565b600061254982612588565b9050919050565b60008115159050919050565b60007fffffffff0000000000000000000000000000000000000000000000000000000082169050919050565b600073ffffffffffffffffffffffffffffffffffffffff82169050919050565b6000819050919050565b82818337600083830152505050565b60005b838110156125df5780820151818401526020810190506125c4565b838111156125ee576000848401525b50505050565b6000600282049050600182168061260c57607f821691505b602082108114156126205761261f61272f565b5b50919050565b61262f8261278d565b810181811067ffffffffffffffff8211171561264e5761264d61275e565b5b80604052505050565b6000612662826125a8565b91507fffffffffffffffffffffffffffffffffffffffffffffffffffffffffffffffff821415612695576126946126d1565b5b600182019050919050565b60006126ab826125a8565b91506126b6836125a8565b9250826126c6576126c5612700565b5b828206905092915050565b7f4e487b7100000000000000000000000000000000000000000000000000000000600052601160045260246000fd5b7f4e487b7100000000000000000000000000000000000000000000000000000000600052601260045260246000fd5b7f4e487b7100000000000000000000000000000000000000000000000000000000600052602260045260246000fd5b7f4e487b7100000000000000000000000000000000000000000000000000000000600052604160045260246000fd5b6000601f19601f8301169050919050565b7f4552433732313a207472616e7366657220746f206e6f6e20455243373231526560008201527f63656976657220696d706c656d656e7465720000000000000000000000000000602082015250565b7f4552433732313a207472616e736665722066726f6d20696e636f72726563742060008201527f6f776e6572000000000000000000000000000000000000000000000000000000602082015250565b7f4552433732313a20746f6b656e20616c7265616479206d696e74656400000000600082015250565b7f4552433732313a207472616e7366657220746f20746865207a65726f2061646460008201527f7265737300000000000000000000000000000000000000000000000000000000602082015250565b7f4552433732313a20617070726f766520746f2063616c6c657200000000000000600082015250565b7f4552433732313a206f70657261746f7220717565727920666f72206e6f6e657860008201527f697374656e7420746f6b656e0000000000000000000000000000000000000000602082015250565b7f4552433732313a20617070726f76652063616c6c6572206973206e6f74206f7760008201527f6e6572206e6f7220617070726f76656420666f7220616c6c0000000000000000602082015250565b7f4552433732313a2062616c616e636520717565727920666f7220746865207a6560008201527f726f206164647265737300000000000000000000000000000000000000000000602082015250565b7f4552433732313a206f776e657220717565727920666f72206e6f6e657869737460008201527f656e7420746f6b656e0000000000000000000000000000000000000000000000602082015250565b7f45524337323155524953746f726167653a2055524920736574206f66206e6f6e60008201527f6578697374656e7420746f6b656e000000000000000000000000000000000000602082015250565b7f4552433732313a206d696e7420746f20746865207a65726f2061646472657373600082015250565b7f45524337323155524953746f726167653a2055524920717565727920666f722060008201527f6e6f6e6578697374656e7420746f6b656e000000000000000000000000000000602082015250565b7f4552433732313a20617070726f76656420717565727920666f72206e6f6e657860008201527f697374656e7420746f6b656e0000000000000000000000000000000000000000602082015250565b7f4552433732314d657461646174613a2055524920717565727920666f72206e6f60008201527f6e6578697374656e7420746f6b656e0000000000000000000000000000000000602082015250565b7f4552433732313a20617070726f76616c20746f2063757272656e74206f776e6560008201527f7200000000000000000000000000000000000000000000000000000000000000602082015250565b7f4552433732313a207472616e736665722063616c6c6572206973206e6f74206f60008201527f776e6572206e6f7220617070726f766564000000000000000000000000000000602082015250565b612c258161253e565b8114612c3057600080fd5b50565b612c3c81612550565b8114612c4757600080fd5b50565b612c538161255c565b8114612c5e57600080fd5b50565b612c6a816125a8565b8114612c7557600080fd5b5056fea2646970667358221220585060d1d76bddb73f2b7f7dff979afa2cbe8c59a6be61dd496ee5e03a87650064736f6c63430008040033",
  "immutableReferences": {},
  "source": "pragma solidity ^0.8.3;\nimport \"@openzeppelin/contracts/token/ERC721/extensions/ERC721URIStorage.sol\";\nimport \"@openzeppelin/contracts/token/ERC721/ERC721.sol\";\nimport \"@openzeppelin/contracts/utils/Counters.sol\";\n\ncontract NFTDefaultCollection is ERC721URIStorage {    \n\n    using Counters for Counters.Counter;\n    Counters.Counter private tokenIds;\n\n    address private factory;\n\n    event mintNft(address sender, string tokenURI, uint tokenId);\n\n    constructor(string memory _name, string memory _symbol) ERC721(_name, _symbol) {\n        factory = msg.sender;\n    }\n\n    function mint(string memory tokenURI) public returns (uint) {\n\n        uint currentId = tokenIds.current();\n\n        _safeMint(msg.sender, currentId);\n        _setTokenURI(currentId, tokenURI);\n\n        emit mintNft(msg.sender, tokenURI, currentId);\n\n        tokenIds.increment();\n        return currentId;\n    }\n\n    function transferItem(address from, address to, uint tokenId) public{\n        transferFrom(from, to, tokenId);\n    }\n}",
  "sourcePath": "E:\\IdeaProject\\NftMarketplace\\nftmarket-smartcontract\\contracts\\NFTDefaultCollection.sol",
  "compiler": {
    "name": "solc",
    "version": "0.8.4+commit.c7e474f2.Emscripten.clang"
  },
  "schemaVersion": "3.4.7",
  "updatedAt": "2022-07-26T10:31:51.884Z",
  "devdoc": {
    "kind": "dev",
    "methods": {
      "approve(address,uint256)": {
        "details": "See {IERC721-approve}."
      },
      "balanceOf(address)": {
        "details": "See {IERC721-balanceOf}."
      },
      "getApproved(uint256)": {
        "details": "See {IERC721-getApproved}."
      },
      "isApprovedForAll(address,address)": {
        "details": "See {IERC721-isApprovedForAll}."
      },
      "name()": {
        "details": "See {IERC721Metadata-name}."
      },
      "ownerOf(uint256)": {
        "details": "See {IERC721-ownerOf}."
      },
      "safeTransferFrom(address,address,uint256)": {
        "details": "See {IERC721-safeTransferFrom}."
      },
      "safeTransferFrom(address,address,uint256,bytes)": {
        "details": "See {IERC721-safeTransferFrom}."
      },
      "setApprovalForAll(address,bool)": {
        "details": "See {IERC721-setApprovalForAll}."
      },
      "supportsInterface(bytes4)": {
        "details": "See {IERC165-supportsInterface}."
      },
      "symbol()": {
        "details": "See {IERC721Metadata-symbol}."
      },
      "tokenURI(uint256)": {
        "details": "See {IERC721Metadata-tokenURI}."
      },
      "transferFrom(address,address,uint256)": {
        "details": "See {IERC721-transferFrom}."
      }
    },
    "version": 1
  },
  "userdoc": {
    "kind": "user",
    "methods": {},
    "version": 1
  }
}