{
  "contractName": "NFTAuction",
  "abi": [
    {
      "inputs": [
        {
          "internalType": "address",
          "name": "_mpecTokenAddress",
          "type": "address"
        }
      ],
      "stateMutability": "nonpayable",
      "type": "constructor"
    },
    {
      "anonymous": false,
      "inputs": [
        {
          "indexed": false,
          "internalType": "address",
          "name": "nftContract",
          "type": "address"
        },
        {
          "indexed": false,
          "internalType": "uint256",
          "name": "tokenId",
          "type": "uint256"
        },
        {
          "indexed": false,
          "internalType": "uint256",
          "name": "startTime",
          "type": "uint256"
        },
        {
          "indexed": false,
          "internalType": "uint256",
          "name": "endTime",
          "type": "uint256"
        },
        {
          "indexed": false,
          "internalType": "uint256",
          "name": "startPrice",
          "type": "uint256"
        },
        {
          "indexed": false,
          "internalType": "uint256",
          "name": "currTokenId",
          "type": "uint256"
        }
      ],
      "name": "CreateAuction",
      "type": "event"
    },
    {
      "inputs": [],
      "name": "auctionIds",
      "outputs": [
        {
          "internalType": "uint256",
          "name": "_value",
          "type": "uint256"
        }
      ],
      "stateMutability": "view",
      "type": "function",
      "constant": true
    },
    {
      "inputs": [
        {
          "internalType": "uint256",
          "name": "",
          "type": "uint256"
        }
      ],
      "name": "auctions",
      "outputs": [
        {
          "internalType": "address",
          "name": "nftContract",
          "type": "address"
        },
        {
          "internalType": "uint256",
          "name": "tokenId",
          "type": "uint256"
        },
        {
          "internalType": "uint256",
          "name": "startTime",
          "type": "uint256"
        },
        {
          "internalType": "uint256",
          "name": "endTime",
          "type": "uint256"
        },
        {
          "internalType": "uint256",
          "name": "highestBid",
          "type": "uint256"
        },
        {
          "internalType": "address",
          "name": "highestBidder",
          "type": "address"
        },
        {
          "internalType": "address",
          "name": "seller",
          "type": "address"
        },
        {
          "internalType": "uint256",
          "name": "status",
          "type": "uint256"
        }
      ],
      "stateMutability": "view",
      "type": "function",
      "constant": true
    },
    {
      "inputs": [
        {
          "internalType": "uint256",
          "name": "",
          "type": "uint256"
        },
        {
          "internalType": "uint256",
          "name": "",
          "type": "uint256"
        }
      ],
      "name": "bidHistory",
      "outputs": [
        {
          "internalType": "address",
          "name": "bidder",
          "type": "address"
        },
        {
          "internalType": "uint256",
          "name": "value",
          "type": "uint256"
        }
      ],
      "stateMutability": "view",
      "type": "function",
      "constant": true
    },
    {
      "inputs": [
        {
          "internalType": "address",
          "name": "nftContract",
          "type": "address"
        },
        {
          "internalType": "uint256",
          "name": "tokenId",
          "type": "uint256"
        },
        {
          "internalType": "uint256",
          "name": "startTime",
          "type": "uint256"
        },
        {
          "internalType": "uint256",
          "name": "startPrice",
          "type": "uint256"
        },
        {
          "internalType": "uint256",
          "name": "endTime",
          "type": "uint256"
        }
      ],
      "name": "createAuction",
      "outputs": [
        {
          "internalType": "uint256",
          "name": "",
          "type": "uint256"
        }
      ],
      "stateMutability": "nonpayable",
      "type": "function"
    },
    {
      "inputs": [
        {
          "internalType": "uint256",
          "name": "_auctionId",
          "type": "uint256"
        }
      ],
      "name": "cancelAuction",
      "outputs": [],
      "stateMutability": "nonpayable",
      "type": "function"
    },
    {
      "inputs": [
        {
          "internalType": "uint256",
          "name": "_auctionId",
          "type": "uint256"
        }
      ],
      "name": "endAuction",
      "outputs": [],
      "stateMutability": "nonpayable",
      "type": "function"
    },
    {
      "inputs": [
        {
          "internalType": "uint256",
          "name": "_auctionId",
          "type": "uint256"
        },
        {
          "internalType": "uint256",
          "name": "value",
          "type": "uint256"
        }
      ],
      "name": "bid",
      "outputs": [],
      "stateMutability": "payable",
      "type": "function",
      "payable": true
    }
  ],
  "bytecode": "0x60806040523480156200001157600080fd5b5060405162001e6238038062001e628339818101604052810190620000379190620000d7565b80600460006101000a81548173ffffffffffffffffffffffffffffffffffffffff021916908373ffffffffffffffffffffffffffffffffffffffff16021790555033600360006101000a81548173ffffffffffffffffffffffffffffffffffffffff021916908373ffffffffffffffffffffffffffffffffffffffff1602179055505062000151565b600081519050620000d18162000137565b92915050565b600060208284031215620000ea57600080fd5b6000620000fa84828501620000c0565b91505092915050565b6000620001108262000117565b9050919050565b600073ffffffffffffffffffffffffffffffffffffffff82169050919050565b620001428162000103565b81146200014e57600080fd5b50565b611d0180620001616000396000f3fe6080604052600436106100705760003560e01c806361ab546e1161004e57806361ab546e14610100578063961c9ae41461013e57806396b5a7551461017b578063b9a2de3a146101a457610070565b8063077669f714610075578063571a26a0146100a0578063598647f8146100e4575b600080fd5b34801561008157600080fd5b5061008a6101cd565b60405161009791906119ac565b60405180910390f35b3480156100ac57600080fd5b506100c760048036038101906100c291906115d2565b6101d9565b6040516100db9897969594939291906117cd565b60405180910390f35b6100fe60048036038101906100f991906115fb565b610281565b005b34801561010c57600080fd5b50610127600480360381019061012291906115fb565b610861565b6040516101359291906117a4565b60405180910390f35b34801561014a57600080fd5b5061016560048036038101906101609190611532565b6108c2565b60405161017291906119ac565b60405180910390f35b34801561018757600080fd5b506101a2600480360381019061019d91906115d2565b610bc4565b005b3480156101b057600080fd5b506101cb60048036038101906101c691906115d2565b610df4565b005b60008060000154905081565b60016020528060005260406000206000915090508060000160009054906101000a900473ffffffffffffffffffffffffffffffffffffffff16908060010154908060020154908060030154908060040154908060050160009054906101000a900473ffffffffffffffffffffffffffffffffffffffff16908060060160009054906101000a900473ffffffffffffffffffffffffffffffffffffffff16908060070154905088565b600060016000848152602001908152602001600020604051806101000160405290816000820160009054906101000a900473ffffffffffffffffffffffffffffffffffffffff1673ffffffffffffffffffffffffffffffffffffffff1673ffffffffffffffffffffffffffffffffffffffff168152602001600182015481526020016002820154815260200160038201548152602001600482015481526020016005820160009054906101000a900473ffffffffffffffffffffffffffffffffffffffff1673ffffffffffffffffffffffffffffffffffffffff1673ffffffffffffffffffffffffffffffffffffffff1681526020016006820160009054906101000a900473ffffffffffffffffffffffffffffffffffffffff1673ffffffffffffffffffffffffffffffffffffffff1673ffffffffffffffffffffffffffffffffffffffff168152602001600782015481525050905060018160e001511461041f576040517f08c379a00000000000000000000000000000000000000000000000000000000081526004016104169061190c565b60405180910390fd5b8060400151421015610466576040517f08c379a000000000000000000000000000000000000000000000000000000000815260040161045d906118ac565b60405180910390fd5b80606001514211156104ad576040517f08c379a00000000000000000000000000000000000000000000000000000000081526004016104a49061198c565b60405180910390fd5b806080015182116104f3576040517f08c379a00000000000000000000000000000000000000000000000000000000081526004016104ea906118ec565b60405180910390fd5b816001600085815260200190815260200160002060040181905550336001600085815260200190815260200160002060050160006101000a81548173ffffffffffffffffffffffffffffffffffffffff021916908373ffffffffffffffffffffffffffffffffffffffff160217905550600060026000858152602001908152602001600020905060008084905060005b83805490508110156106f2573373ffffffffffffffffffffffffffffffffffffffff168482815481106105df577f4e487b7100000000000000000000000000000000000000000000000000000000600052603260045260246000fd5b906000526020600020906002020160000160009054906101000a900473ffffffffffffffffffffffffffffffffffffffff1673ffffffffffffffffffffffffffffffffffffffff1614156106df5760019250600084828154811061066c577f4e487b7100000000000000000000000000000000000000000000000000000000600052603260045260246000fd5b9060005260206000209060020201600101549050808761068c91906119d8565b9250868583815481106106c8577f4e487b7100000000000000000000000000000000000000000000000000000000600052603260045260246000fd5b906000526020600020906002020160010181905550505b80806106ea90611a54565b915050610583565b50816107a1578260405180604001604052803373ffffffffffffffffffffffffffffffffffffffff16815260200187815250908060018154018082558091505060019003906000526020600020906002020160009091909190915060008201518160000160006101000a81548173ffffffffffffffffffffffffffffffffffffffff021916908373ffffffffffffffffffffffffffffffffffffffff1602179055506020820151816001015550505b6000600460009054906101000a900473ffffffffffffffffffffffffffffffffffffffff1690508073ffffffffffffffffffffffffffffffffffffffff166323b872dd3330856040518463ffffffff1660e01b81526004016108059392919061176d565b602060405180830381600087803b15801561081f57600080fd5b505af1158015610833573d6000803e3d6000fd5b505050506040513d601f19601f8201168201806040525081019061085791906115a9565b5050505050505050565b6002602052816000526040600020818154811061087d57600080fd5b9060005260206000209060020201600091509150508060000160009054906101000a900473ffffffffffffffffffffffffffffffffffffffff16908060010154905082565b6000808311610906576040517f08c379a00000000000000000000000000000000000000000000000000000000081526004016108fd9061196c565b60405180910390fd5b838211610948576040517f08c379a000000000000000000000000000000000000000000000000000000000815260040161093f9061194c565b60405180910390fd5b600061095460006114cf565b905060006040518061010001604052808973ffffffffffffffffffffffffffffffffffffffff168152602001888152602001878152602001858152602001868152602001600073ffffffffffffffffffffffffffffffffffffffff1681526020013373ffffffffffffffffffffffffffffffffffffffff16815260200160018152509050806001600084815260200190815260200160002060008201518160000160006101000a81548173ffffffffffffffffffffffffffffffffffffffff021916908373ffffffffffffffffffffffffffffffffffffffff1602179055506020820151816001015560408201518160020155606082015181600301556080820151816004015560a08201518160050160006101000a81548173ffffffffffffffffffffffffffffffffffffffff021916908373ffffffffffffffffffffffffffffffffffffffff16021790555060c08201518160060160006101000a81548173ffffffffffffffffffffffffffffffffffffffff021916908373ffffffffffffffffffffffffffffffffffffffff16021790555060e08201518160070155905050610b0060006114dd565b60008890508073ffffffffffffffffffffffffffffffffffffffff166323b872dd33308b6040518463ffffffff1660e01b8152600401610b429392919061176d565b600060405180830381600087803b158015610b5c57600080fd5b505af1158015610b70573d6000803e3d6000fd5b505050507fe40f06fa0a6746671dc112db73d78fe9a048ee3a08d3ce6a8abb3bc5db4a6353898989888a88604051610bad9695949392919061184b565b60405180910390a182935050505095945050505050565b600060016000838152602001908152602001600020604051806101000160405290816000820160009054906101000a900473ffffffffffffffffffffffffffffffffffffffff1673ffffffffffffffffffffffffffffffffffffffff1673ffffffffffffffffffffffffffffffffffffffff168152602001600182015481526020016002820154815260200160038201548152602001600482015481526020016005820160009054906101000a900473ffffffffffffffffffffffffffffffffffffffff1673ffffffffffffffffffffffffffffffffffffffff1673ffffffffffffffffffffffffffffffffffffffff1681526020016006820160009054906101000a900473ffffffffffffffffffffffffffffffffffffffff1673ffffffffffffffffffffffffffffffffffffffff1673ffffffffffffffffffffffffffffffffffffffff168152602001600782015481525050905060018160e0015114610d62576040517f08c379a0000000000000000000000000000000000000000000000000000000008152600401610d599061190c565b60405180910390fd5b3373ffffffffffffffffffffffffffffffffffffffff168160c0015173ffffffffffffffffffffffffffffffffffffffff1614610dd4576040517f08c379a0000000000000000000000000000000000000000000000000000000008152600401610dcb906118cc565b60405180910390fd5b600060016000848152602001908152602001600020600701819055505050565b600360009054906101000a900473ffffffffffffffffffffffffffffffffffffffff1673ffffffffffffffffffffffffffffffffffffffff163373ffffffffffffffffffffffffffffffffffffffff1614610e84576040517f08c379a0000000000000000000000000000000000000000000000000000000008152600401610e7b9061192c565b60405180910390fd5b600060016000838152602001908152602001600020604051806101000160405290816000820160009054906101000a900473ffffffffffffffffffffffffffffffffffffffff1673ffffffffffffffffffffffffffffffffffffffff1673ffffffffffffffffffffffffffffffffffffffff168152602001600182015481526020016002820154815260200160038201548152602001600482015481526020016005820160009054906101000a900473ffffffffffffffffffffffffffffffffffffffff1673ffffffffffffffffffffffffffffffffffffffff1673ffffffffffffffffffffffffffffffffffffffff1681526020016006820160009054906101000a900473ffffffffffffffffffffffffffffffffffffffff1673ffffffffffffffffffffffffffffffffffffffff1673ffffffffffffffffffffffffffffffffffffffff168152602001600782015481525050905060018160e0015114611022576040517f08c379a00000000000000000000000000000000000000000000000000000000081526004016110199061190c565b60405180910390fd5b60006001600084815260200190815260200160002060040154905060006001600085815260200190815260200160002060050160009054906101000a900473ffffffffffffffffffffffffffffffffffffffff16905060006001600086815260200190815260200160002060060160009054906101000a900473ffffffffffffffffffffffffffffffffffffffff16905060006001600087815260200190815260200160002060000160009054906101000a900473ffffffffffffffffffffffffffffffffffffffff1690508073ffffffffffffffffffffffffffffffffffffffff166323b872dd3085600160008b8152602001908152602001600020600101546040518463ffffffff1660e01b81526004016111419392919061176d565b600060405180830381600087803b15801561115b57600080fd5b505af115801561116f573d6000803e3d6000fd5b505050506000600460009054906101000a900473ffffffffffffffffffffffffffffffffffffffff1690508073ffffffffffffffffffffffffffffffffffffffff1663a9059cbb84876040518363ffffffff1660e01b81526004016111d59291906117a4565b602060405180830381600087803b1580156111ef57600080fd5b505af1158015611203573d6000803e3d6000fd5b505050506040513d601f19601f8201168201806040525081019061122791906115a9565b50600060026000898152602001908152602001600020805480602002602001604051908101604052809291908181526020016000905b828210156112ef57838290600052602060002090600202016040518060400160405290816000820160009054906101000a900473ffffffffffffffffffffffffffffffffffffffff1673ffffffffffffffffffffffffffffffffffffffff1673ffffffffffffffffffffffffffffffffffffffff1681526020016001820154815250508152602001906001019061125d565b50505050905060005b81518110156114a8578573ffffffffffffffffffffffffffffffffffffffff16828281518110611351577f4e487b7100000000000000000000000000000000000000000000000000000000600052603260045260246000fd5b60200260200101516000015173ffffffffffffffffffffffffffffffffffffffff16141561137e57611495565b8273ffffffffffffffffffffffffffffffffffffffff1663a9059cbb8383815181106113d3577f4e487b7100000000000000000000000000000000000000000000000000000000600052603260045260246000fd5b602002602001015160000151848481518110611418577f4e487b7100000000000000000000000000000000000000000000000000000000600052603260045260246000fd5b6020026020010151602001516040518363ffffffff1660e01b81526004016114419291906117a4565b602060405180830381600087803b15801561145b57600080fd5b505af115801561146f573d6000803e3d6000fd5b505050506040513d601f19601f8201168201806040525081019061149391906115a9565b505b80806114a090611a54565b9150506112f8565b506000600160008a8152602001908152602001600020600701819055505050505050505050565b600081600001549050919050565b6001816000016000828254019250508190555050565b60008135905061150281611c86565b92915050565b60008151905061151781611c9d565b92915050565b60008135905061152c81611cb4565b92915050565b600080600080600060a0868803121561154a57600080fd5b6000611558888289016114f3565b95505060206115698882890161151d565b945050604061157a8882890161151d565b935050606061158b8882890161151d565b925050608061159c8882890161151d565b9150509295509295909350565b6000602082840312156115bb57600080fd5b60006115c984828501611508565b91505092915050565b6000602082840312156115e457600080fd5b60006115f28482850161151d565b91505092915050565b6000806040838503121561160e57600080fd5b600061161c8582860161151d565b925050602061162d8582860161151d565b9150509250929050565b61164081611a0c565b82525050565b60006116536021836119c7565b915061165e82611acc565b604082019050919050565b60006116766038836119c7565b915061168182611b1b565b604082019050919050565b60006116996020836119c7565b91506116a482611b6a565b602082019050919050565b60006116bc601c836119c7565b91506116c782611b93565b602082019050919050565b60006116df6035836119c7565b91506116ea82611bbc565b604082019050919050565b60006117026012836119c7565b915061170d82611c0b565b602082019050919050565b6000611725601c836119c7565b915061173082611c34565b602082019050919050565b60006117486015836119c7565b915061175382611c5d565b602082019050919050565b61176781611a4a565b82525050565b60006060820190506117826000830186611637565b61178f6020830185611637565b61179c604083018461175e565b949350505050565b60006040820190506117b96000830185611637565b6117c6602083018461175e565b9392505050565b6000610100820190506117e3600083018b611637565b6117f0602083018a61175e565b6117fd604083018961175e565b61180a606083018861175e565b611817608083018761175e565b61182460a0830186611637565b61183160c0830185611637565b61183e60e083018461175e565b9998505050505050505050565b600060c0820190506118606000830189611637565b61186d602083018861175e565b61187a604083018761175e565b611887606083018661175e565b611894608083018561175e565b6118a160a083018461175e565b979650505050505050565b600060208201905081810360008301526118c581611646565b9050919050565b600060208201905081810360008301526118e581611669565b9050919050565b600060208201905081810360008301526119058161168c565b9050919050565b60006020820190508181036000830152611925816116af565b9050919050565b60006020820190508181036000830152611945816116d2565b9050919050565b60006020820190508181036000830152611965816116f5565b9050919050565b6000602082019050818103600083015261198581611718565b9050919050565b600060208201905081810360008301526119a58161173b565b9050919050565b60006020820190506119c1600083018461175e565b92915050565b600082825260208201905092915050565b60006119e382611a4a565b91506119ee83611a4a565b925082821015611a0157611a00611a9d565b5b828203905092915050565b6000611a1782611a2a565b9050919050565b60008115159050919050565b600073ffffffffffffffffffffffffffffffffffffffff82169050919050565b6000819050919050565b6000611a5f82611a4a565b91507fffffffffffffffffffffffffffffffffffffffffffffffffffffffffffffffff821415611a9257611a91611a9d565b5b600182019050919050565b7f4e487b7100000000000000000000000000000000000000000000000000000000600052601160045260246000fd5b7f546869732061756374696f6e2068617665206e6f74207965742073746172746560008201527f6400000000000000000000000000000000000000000000000000000000000000602082015250565b7f5573657220646f6e74206861766520617574686f72697a6520746f2063616e6360008201527f656c2061756374696f6e20666f722074686973206974656d0000000000000000602082015250565b7f4e6577207072696365206d75737420686967686572206c617374207072696365600082015250565b7f546869732061756374696f6e206973206e6f74206176616961626c6500000000600082015250565b7f5573657220646f6e74206861766520617574686f72697a6520746f20656e642060008201527f61756374696f6e20666f722074686973206974656d0000000000000000000000602082015250565b7f456e6454696d6520697320696e76616c69640000000000000000000000000000600082015250565b7f5072696365206d757374206265206174206c6561737420312077656900000000600082015250565b7f546869732061756374696f6e20697320656e6465640000000000000000000000600082015250565b611c8f81611a0c565b8114611c9a57600080fd5b50565b611ca681611a1e565b8114611cb157600080fd5b50565b611cbd81611a4a565b8114611cc857600080fd5b5056fea2646970667358221220bbd7130293d5c30d56f094d6fe4e73aed067683e74ca1b914c383a0566880ec664736f6c63430008040033",
  "immutableReferences": {},
  "source": "pragma solidity ^0.8.3;\r\nimport \"@openzeppelin/contracts/utils/Counters.sol\";\r\nimport \"./MpecToken.sol\";\r\nimport \"./NFTCollection.sol\";\r\n\r\ncontract NFTAuction {\r\n\r\n    using Counters for Counters.Counter;\r\n    Counters.Counter public auctionIds;\r\n\r\n    mapping(uint => Auction) public auctions;\r\n\r\n    mapping(uint => BidAction[]) public bidHistory;\r\n\r\n    address private owner;\r\n\r\n    address private mpecTokenAddress;\r\n\r\n    constructor(address _mpecTokenAddress){\r\n        mpecTokenAddress = _mpecTokenAddress;\r\n        owner = msg.sender;\r\n    }\r\n\r\n    event CreateAuction(address nftContract, uint tokenId, uint startTime, uint endTime, uint startPrice, uint currTokenId);\r\n\r\n    struct Auction{\r\n        address nftContract;\r\n        uint tokenId;\r\n        uint startTime;\r\n        uint endTime;\r\n        uint highestBid;\r\n        address highestBidder;\r\n        address seller;\r\n        uint status;\r\n    }\r\n\r\n    struct BidAction{\r\n        address bidder;\r\n        uint value;\r\n    }\r\n\r\n\r\n    function createAuction(\r\n        address nftContract,\r\n        uint tokenId,\r\n        uint startTime,\r\n        uint startPrice,\r\n        uint endTime\r\n        ) public returns (uint){\r\n\r\n        require(startPrice > 0, \"Price must be at least 1 wei\");\r\n\r\n        require(endTime > startTime, \"EndTime is invalid\");\r\n\r\n        uint currentAuctionId = auctionIds.current();\r\n\r\n        Auction memory auction = Auction(nftContract, tokenId, startTime, endTime, startPrice, address(0), msg.sender, 1);\r\n\r\n        auctions[currentAuctionId] = auction;\r\n\r\n        auctionIds.increment();\r\n\r\n        NFTCollection collection = NFTCollection(nftContract);\r\n        collection.transferFrom(msg.sender, address(this), tokenId);\r\n\r\n        emit CreateAuction(nftContract, tokenId, startTime, endTime, startPrice, currentAuctionId);\r\n\r\n        return currentAuctionId;\r\n    }\r\n\r\n    function cancelAuction(uint _auctionId) public {\r\n        Auction memory auction = auctions[_auctionId];\r\n\r\n        require(auction.status == 1, \"This auction is not avaiable\");\r\n\r\n        require(auction.seller == msg.sender, \"User dont have authorize to cancel auction for this item\");\r\n    \r\n        auctions[_auctionId].status = 0;\r\n    }\r\n\r\n    function endAuction(uint _auctionId) public{\r\n\r\n        require(msg.sender == owner, \"User dont have authorize to end auction for this item\");\r\n\r\n        Auction memory auction = auctions[_auctionId];\r\n\r\n        require(auction.status == 1, \"This auction is not avaiable\");\r\n\r\n        // check balance v chuyn tin\r\n        uint price = auctions[_auctionId].highestBid;\r\n        address highestBidder = auctions[_auctionId].highestBidder;\r\n        address seller = auctions[_auctionId].seller;\r\n\r\n        NFTCollection collection = NFTCollection(auctions[_auctionId].nftContract);\r\n        collection.transferFrom(address(this), highestBidder, auctions[_auctionId].tokenId);\r\n\r\n        MpecToken mpecToken = MpecToken(mpecTokenAddress);\r\n        mpecToken.transfer(seller, price);\r\n\r\n        BidAction[] memory bidActions = bidHistory[_auctionId];\r\n        for(uint i = 0; i < bidActions.length; i++){\r\n            if(bidActions[i].bidder == highestBidder){\r\n                continue;\r\n            }\r\n            mpecToken.transfer(bidActions[i].bidder, bidActions[i].value);\r\n        }\r\n\r\n        auctions[_auctionId].status = 0;\r\n    }\r\n\r\n    function bid(uint _auctionId, uint value) payable public{\r\n        Auction memory auction = auctions[_auctionId];\r\n\r\n        require(auction.status == 1, \"This auction is not avaiable\");\r\n        require(block.timestamp >= auction.startTime, \"This auction have not yet started\");\r\n        require(block.timestamp <= auction.endTime, \"This auction is ended\");\r\n\r\n        require(value > auction.highestBid, \"New price must higher last price\");\r\n\r\n        auctions[_auctionId].highestBid = value;\r\n        auctions[_auctionId].highestBidder = msg.sender;\r\n\r\n        BidAction[] storage bidActions = bidHistory[_auctionId];\r\n\r\n        bool existed = false;\r\n        uint transferValue = value;\r\n        for(uint i = 0; i < bidActions.length; i++){\r\n            if(bidActions[i].bidder == msg.sender){\r\n                existed = true;\r\n                uint currBid = bidActions[i].value;\r\n                transferValue = value - currBid;\r\n                bidActions[i].value = value;\r\n            }\r\n        }\r\n\r\n        if(!existed){\r\n            bidActions.push(BidAction(msg.sender, value));\r\n        }\r\n\r\n        MpecToken mpecToken = MpecToken(mpecTokenAddress);\r\n        mpecToken.transferFrom(msg.sender, address(this), transferValue);\r\n\r\n    }\r\n}",
  "sourcePath": "E:\\IdeaProject\\NftMarketplace\\nftmarket-smartcontract\\contracts\\NFTAuction.sol",
  "compiler": {
    "name": "solc",
    "version": "0.8.4+commit.c7e474f2.Emscripten.clang"
  },
  "schemaVersion": "3.4.7",
  "updatedAt": "2022-07-25T07:39:22.128Z",
  "networkType": "ethereum",
  "devdoc": {
    "kind": "dev",
    "methods": {},
    "version": 1
  },
  "userdoc": {
    "kind": "user",
    "methods": {},
    "version": 1
  }
}