{
  "contractName": "NFTCollectionFactory",
  "abi": [
    {
      "anonymous": false,
      "inputs": [
        {
          "indexed": false,
          "internalType": "address",
          "name": "",
          "type": "address"
        }
      ],
      "name": "CreateCollection",
      "type": "event"
    },
    {
      "inputs": [
        {
          "internalType": "string",
          "name": "_name",
          "type": "string"
        },
        {
          "internalType": "string",
          "name": "_symbol",
          "type": "string"
        }
      ],
      "name": "create",
      "outputs": [
        {
          "internalType": "address",
          "name": "",
          "type": "address"
        }
      ],
      "stateMutability": "nonpayable",
      "type": "function"
    }
  ],
  "bytecode": "0x608060405234801561001057600080fd5b50613652806100206000396000f3fe60806040523480156200001157600080fd5b50600436106200002e5760003560e01c8063198e2b8a1462000033575b600080fd5b6200005160048036038101906200004b919062000174565b62000069565b60405162000060919062000239565b60405180910390f35b6000803384846040516200007d90620000f4565b6200008b9392919062000256565b604051809103906000f080158015620000a8573d6000803e3d6000fd5b50905060008190507f18896a5e5f9fd6b9d74f89291fe4640722c8dc4d6a1025ccf047607f3e6954ee81604051620000e1919062000239565b60405180910390a1809250505092915050565b613211806200040c83390190565b6000620001196200011384620002ca565b620002a1565b9050828152602081018484840111156200013257600080fd5b6200013f84828562000350565b509392505050565b600082601f8301126200015957600080fd5b81356200016b84826020860162000102565b91505092915050565b600080604083850312156200018857600080fd5b600083013567ffffffffffffffff811115620001a357600080fd5b620001b18582860162000147565b925050602083013567ffffffffffffffff811115620001cf57600080fd5b620001dd8582860162000147565b9150509250929050565b620001f2816200031c565b82525050565b6000620002058262000300565b6200021181856200030b565b9350620002238185602086016200035f565b6200022e81620003fa565b840191505092915050565b6000602082019050620002506000830184620001e7565b92915050565b60006060820190506200026d6000830186620001e7565b8181036020830152620002818185620001f8565b90508181036040830152620002978184620001f8565b9050949350505050565b6000620002ad620002c0565b9050620002bb828262000395565b919050565b6000604051905090565b600067ffffffffffffffff821115620002e857620002e7620003cb565b5b620002f382620003fa565b9050602081019050919050565b600081519050919050565b600082825260208201905092915050565b6000620003298262000330565b9050919050565b600073ffffffffffffffffffffffffffffffffffffffff82169050919050565b82818337600083830152505050565b60005b838110156200037f57808201518184015260208101905062000362565b838111156200038f576000848401525b50505050565b620003a082620003fa565b810181811067ffffffffffffffff82111715620003c257620003c1620003cb565b5b80604052505050565b7f4e487b7100000000000000000000000000000000000000000000000000000000600052604160045260246000fd5b6000601f19601f830116905091905056fe60806040523480156200001157600080fd5b506040516200321138038062003211833981810160405281019062000037919062000231565b8181816000908051906020019062000051929190620000f8565b5080600190805190602001906200006a929190620000f8565b50505082600860006101000a81548173ffffffffffffffffffffffffffffffffffffffff021916908373ffffffffffffffffffffffffffffffffffffffff16021790555033600960006101000a81548173ffffffffffffffffffffffffffffffffffffffff021916908373ffffffffffffffffffffffffffffffffffffffff16021790555050505062000477565b828054620001069062000382565b90600052602060002090601f0160209004810192826200012a576000855562000176565b82601f106200014557805160ff191683800117855562000176565b8280016001018555821562000176579182015b828111156200017557825182559160200191906001019062000158565b5b50905062000185919062000189565b5090565b5b80821115620001a45760008160009055506001016200018a565b5090565b6000620001bf620001b984620002e2565b620002b9565b905082815260208101848484011115620001d857600080fd5b620001e58482856200034c565b509392505050565b600081519050620001fe816200045d565b92915050565b600082601f8301126200021657600080fd5b815162000228848260208601620001a8565b91505092915050565b6000806000606084860312156200024757600080fd5b60006200025786828701620001ed565b935050602084015167ffffffffffffffff8111156200027557600080fd5b620002838682870162000204565b925050604084015167ffffffffffffffff811115620002a157600080fd5b620002af8682870162000204565b9150509250925092565b6000620002c5620002d8565b9050620002d38282620003b8565b919050565b6000604051905090565b600067ffffffffffffffff8211156200030057620002ff6200041d565b5b6200030b826200044c565b9050602081019050919050565b600062000325826200032c565b9050919050565b600073ffffffffffffffffffffffffffffffffffffffff82169050919050565b60005b838110156200036c5780820151818401526020810190506200034f565b838111156200037c576000848401525b50505050565b600060028204905060018216806200039b57607f821691505b60208210811415620003b257620003b1620003ee565b5b50919050565b620003c3826200044c565b810181811067ffffffffffffffff82111715620003e557620003e46200041d565b5b80604052505050565b7f4e487b7100000000000000000000000000000000000000000000000000000000600052602260045260246000fd5b7f4e487b7100000000000000000000000000000000000000000000000000000000600052604160045260246000fd5b6000601f19601f8301169050919050565b620004688162000318565b81146200047457600080fd5b50565b612d8a80620004876000396000f3fe608060405234801561001057600080fd5b50600436106100ea5760003560e01c806370a082311161008c578063b88d4fde11610066578063b88d4fde1461025b578063c87b56dd14610277578063d85d3d27146102a7578063e985e9c5146102d7576100ea565b806370a08231146101f157806395d89b4114610221578063a22cb4651461023f576100ea565b8063095ea7b3116100c8578063095ea7b31461016d57806323b872dd1461018957806342842e0e146101a55780636352211e146101c1576100ea565b806301ffc9a7146100ef57806306fdde031461011f578063081812fc1461013d575b600080fd5b61010960048036038101906101049190611d34565b610307565b604051610116919061219e565b60405180910390f35b6101276103e9565b60405161013491906121b9565b60405180910390f35b61015760048036038101906101529190611dc7565b61047b565b6040516101649190612137565b60405180910390f35b61018760048036038101906101829190611cf8565b610500565b005b6101a3600480360381019061019e9190611bf2565b610618565b005b6101bf60048036038101906101ba9190611bf2565b610678565b005b6101db60048036038101906101d69190611dc7565b610698565b6040516101e89190612137565b60405180910390f35b61020b60048036038101906102069190611b8d565b61074a565b604051610218919061242b565b60405180910390f35b610229610802565b60405161023691906121b9565b60405180910390f35b61025960048036038101906102549190611cbc565b610894565b005b61027560048036038101906102709190611c41565b6108aa565b005b610291600480360381019061028c9190611dc7565b61090c565b60405161029e91906121b9565b60405180910390f35b6102c160048036038101906102bc9190611d86565b610a5e565b6040516102ce919061242b565b60405180910390f35b6102f160048036038101906102ec9190611bb6565b610b5e565b6040516102fe919061219e565b60405180910390f35b60007f80ac58cd000000000000000000000000000000000000000000000000000000007bffffffffffffffffffffffffffffffffffffffffffffffffffffffff1916827bffffffffffffffffffffffffffffffffffffffffffffffffffffffff191614806103d257507f5b5e139f000000000000000000000000000000000000000000000000000000007bffffffffffffffffffffffffffffffffffffffffffffffffffffffff1916827bffffffffffffffffffffffffffffffffffffffffffffffffffffffff1916145b806103e257506103e182610bf2565b5b9050919050565b6060600080546103f890612681565b80601f016020809104026020016040519081016040528092919081815260200182805461042490612681565b80156104715780601f1061044657610100808354040283529160200191610471565b820191906000526020600020905b81548152906001019060200180831161045457829003601f168201915b5050505050905090565b600061048682610c5c565b6104c5576040517f08c379a00000000000000000000000000000000000000000000000000000000081526004016104bc9061238b565b60405180910390fd5b6004600083815260200190815260200160002060009054906101000a900473ffffffffffffffffffffffffffffffffffffffff169050919050565b600061050b82610698565b90508073ffffffffffffffffffffffffffffffffffffffff168373ffffffffffffffffffffffffffffffffffffffff16141561057c576040517f08c379a0000000000000000000000000000000000000000000000000000000008152600401610573906123eb565b60405180910390fd5b8073ffffffffffffffffffffffffffffffffffffffff1661059b610cc8565b73ffffffffffffffffffffffffffffffffffffffff1614806105ca57506105c9816105c4610cc8565b610b5e565b5b610609576040517f08c379a0000000000000000000000000000000000000000000000000000000008152600401610600906122cb565b60405180910390fd5b6106138383610cd0565b505050565b610629610623610cc8565b82610d89565b610668576040517f08c379a000000000000000000000000000000000000000000000000000000000815260040161065f9061240b565b60405180910390fd5b610673838383610e67565b505050565b610693838383604051806020016040528060008152506108aa565b505050565b6000806002600084815260200190815260200160002060009054906101000a900473ffffffffffffffffffffffffffffffffffffffff169050600073ffffffffffffffffffffffffffffffffffffffff168173ffffffffffffffffffffffffffffffffffffffff161415610741576040517f08c379a00000000000000000000000000000000000000000000000000000000081526004016107389061230b565b60405180910390fd5b80915050919050565b60008073ffffffffffffffffffffffffffffffffffffffff168273ffffffffffffffffffffffffffffffffffffffff1614156107bb576040517f08c379a00000000000000000000000000000000000000000000000000000000081526004016107b2906122eb565b60405180910390fd5b600360008373ffffffffffffffffffffffffffffffffffffffff1673ffffffffffffffffffffffffffffffffffffffff168152602001908152602001600020549050919050565b60606001805461081190612681565b80601f016020809104026020016040519081016040528092919081815260200182805461083d90612681565b801561088a5780601f1061085f5761010080835404028352916020019161088a565b820191906000526020600020905b81548152906001019060200180831161086d57829003601f168201915b5050505050905090565b6108a661089f610cc8565b83836110ce565b5050565b6108bb6108b5610cc8565b83610d89565b6108fa576040517f08c379a00000000000000000000000000000000000000000000000000000000081526004016108f19061240b565b60405180910390fd5b6109068484848461123b565b50505050565b606061091782610c5c565b610956576040517f08c379a000000000000000000000000000000000000000000000000000000000815260040161094d9061236b565b60405180910390fd5b600060066000848152602001908152602001600020805461097690612681565b80601f01602080910402602001604051908101604052809291908181526020018280546109a290612681565b80156109ef5780601f106109c4576101008083540402835291602001916109ef565b820191906000526020600020905b8154815290600101906020018083116109d257829003601f168201915b505050505090506000610a00611297565b9050600081511415610a16578192505050610a59565b600082511115610a4b578082604051602001610a33929190612113565b60405160208183030381529060405292505050610a59565b610a54846112ae565b925050505b919050565b6000600860009054906101000a900473ffffffffffffffffffffffffffffffffffffffff1673ffffffffffffffffffffffffffffffffffffffff163373ffffffffffffffffffffffffffffffffffffffff1614610af0576040517f08c379a0000000000000000000000000000000000000000000000000000000008152600401610ae7906123cb565b60405180910390fd5b6000610afc6007611355565b9050610b083382611363565b610b128184611381565b7f2c7e5ec101e3a24ac69b2c5398976eea86f1daa251c7af7b25343ec364e639718382604051610b439291906121db565b60405180910390a1610b5560076113f5565b80915050919050565b6000600560008473ffffffffffffffffffffffffffffffffffffffff1673ffffffffffffffffffffffffffffffffffffffff16815260200190815260200160002060008373ffffffffffffffffffffffffffffffffffffffff1673ffffffffffffffffffffffffffffffffffffffff16815260200190815260200160002060009054906101000a900460ff16905092915050565b60007f01ffc9a7000000000000000000000000000000000000000000000000000000007bffffffffffffffffffffffffffffffffffffffffffffffffffffffff1916827bffffffffffffffffffffffffffffffffffffffffffffffffffffffff1916149050919050565b60008073ffffffffffffffffffffffffffffffffffffffff166002600084815260200190815260200160002060009054906101000a900473ffffffffffffffffffffffffffffffffffffffff1673ffffffffffffffffffffffffffffffffffffffff1614159050919050565b600033905090565b816004600083815260200190815260200160002060006101000a81548173ffffffffffffffffffffffffffffffffffffffff021916908373ffffffffffffffffffffffffffffffffffffffff160217905550808273ffffffffffffffffffffffffffffffffffffffff16610d4383610698565b73ffffffffffffffffffffffffffffffffffffffff167f8c5be1e5ebec7d5bd14f71427d1e84f3dd0314c0f7b2291e5b200ac8c7c3b92560405160405180910390a45050565b6000610d9482610c5c565b610dd3576040517f08c379a0000000000000000000000000000000000000000000000000000000008152600401610dca906122ab565b60405180910390fd5b6000610dde83610698565b90508073ffffffffffffffffffffffffffffffffffffffff168473ffffffffffffffffffffffffffffffffffffffff161480610e205750610e1f8185610b5e565b5b80610e5e57508373ffffffffffffffffffffffffffffffffffffffff16610e468461047b565b73ffffffffffffffffffffffffffffffffffffffff16145b91505092915050565b8273ffffffffffffffffffffffffffffffffffffffff16610e8782610698565b73ffffffffffffffffffffffffffffffffffffffff1614610edd576040517f08c379a0000000000000000000000000000000000000000000000000000000008152600401610ed49061222b565b60405180910390fd5b600073ffffffffffffffffffffffffffffffffffffffff168273ffffffffffffffffffffffffffffffffffffffff161415610f4d576040517f08c379a0000000000000000000000000000000000000000000000000000000008152600401610f449061226b565b60405180910390fd5b610f5883838361140b565b610f63600082610cd0565b6001600360008573ffffffffffffffffffffffffffffffffffffffff1673ffffffffffffffffffffffffffffffffffffffff1681526020019081526020016000206000828254610fb39190612597565b925050819055506001600360008473ffffffffffffffffffffffffffffffffffffffff1673ffffffffffffffffffffffffffffffffffffffff168152602001908152602001600020600082825461100a9190612510565b92505081905550816002600083815260200190815260200160002060006101000a81548173ffffffffffffffffffffffffffffffffffffffff021916908373ffffffffffffffffffffffffffffffffffffffff160217905550808273ffffffffffffffffffffffffffffffffffffffff168473ffffffffffffffffffffffffffffffffffffffff167fddf252ad1be2c89b69c2b068fc378daa952ba7f163c4a11628f55a4df523b3ef60405160405180910390a46110c9838383611410565b505050565b8173ffffffffffffffffffffffffffffffffffffffff168373ffffffffffffffffffffffffffffffffffffffff16141561113d576040517f08c379a00000000000000000000000000000000000000000000000000000000081526004016111349061228b565b60405180910390fd5b80600560008573ffffffffffffffffffffffffffffffffffffffff1673ffffffffffffffffffffffffffffffffffffffff16815260200190815260200160002060008473ffffffffffffffffffffffffffffffffffffffff1673ffffffffffffffffffffffffffffffffffffffff16815260200190815260200160002060006101000a81548160ff0219169083151502179055508173ffffffffffffffffffffffffffffffffffffffff168373ffffffffffffffffffffffffffffffffffffffff167f17307eab39ab6107e8899845ad3d59bd9653f200f220920489ca2b5937696c318360405161122e919061219e565b60405180910390a3505050565b611246848484610e67565b61125284848484611415565b611291576040517f08c379a00000000000000000000000000000000000000000000000000000000081526004016112889061220b565b60405180910390fd5b50505050565b606060405180602001604052806000815250905090565b60606112b982610c5c565b6112f8576040517f08c379a00000000000000000000000000000000000000000000000000000000081526004016112ef906123ab565b60405180910390fd5b6000611302611297565b90506000815111611322576040518060200160405280600081525061134d565b8061132c846115ac565b60405160200161133d929190612113565b6040516020818303038152906040525b915050919050565b600081600001549050919050565b61137d828260405180602001604052806000815250611759565b5050565b61138a82610c5c565b6113c9576040517f08c379a00000000000000000000000000000000000000000000000000000000081526004016113c09061232b565b60405180910390fd5b806006600084815260200190815260200160002090805190602001906113f09291906119b1565b505050565b6001816000016000828254019250508190555050565b505050565b505050565b60006114368473ffffffffffffffffffffffffffffffffffffffff166117b4565b1561159f578373ffffffffffffffffffffffffffffffffffffffff1663150b7a0261145f610cc8565b8786866040518563ffffffff1660e01b81526004016114819493929190612152565b602060405180830381600087803b15801561149b57600080fd5b505af19250505080156114cc57506040513d601f19601f820116820180604052508101906114c99190611d5d565b60015b61154f573d80600081146114fc576040519150601f19603f3d011682016040523d82523d6000602084013e611501565b606091505b50600081511415611547576040517f08c379a000000000000000000000000000000000000000000000000000000000815260040161153e9061220b565b60405180910390fd5b805181602001fd5b63150b7a0260e01b7bffffffffffffffffffffffffffffffffffffffffffffffffffffffff1916817bffffffffffffffffffffffffffffffffffffffffffffffffffffffff1916149150506115a4565b600190505b949350505050565b606060008214156115f4576040518060400160405280600181526020017f30000000000000000000000000000000000000000000000000000000000000008152509050611754565b600082905060005b6000821461162657808061160f906126e4565b915050600a8261161f9190612566565b91506115fc565b60008167ffffffffffffffff811115611668577f4e487b7100000000000000000000000000000000000000000000000000000000600052604160045260246000fd5b6040519080825280601f01601f19166020018201604052801561169a5781602001600182028036833780820191505090505b5090505b6000851461174d576001826116b39190612597565b9150600a856116c2919061272d565b60306116ce9190612510565b60f81b81838151811061170a577f4e487b7100000000000000000000000000000000000000000000000000000000600052603260045260246000fd5b60200101907effffffffffffffffffffffffffffffffffffffffffffffffffffffffffffff1916908160001a905350600a856117469190612566565b945061169e565b8093505050505b919050565b61176383836117d7565b6117706000848484611415565b6117af576040517f08c379a00000000000000000000000000000000000000000000000000000000081526004016117a69061220b565b60405180910390fd5b505050565b6000808273ffffffffffffffffffffffffffffffffffffffff163b119050919050565b600073ffffffffffffffffffffffffffffffffffffffff168273ffffffffffffffffffffffffffffffffffffffff161415611847576040517f08c379a000000000000000000000000000000000000000000000000000000000815260040161183e9061234b565b60405180910390fd5b61185081610c5c565b15611890576040517f08c379a00000000000000000000000000000000000000000000000000000000081526004016118879061224b565b60405180910390fd5b61189c6000838361140b565b6001600360008473ffffffffffffffffffffffffffffffffffffffff1673ffffffffffffffffffffffffffffffffffffffff16815260200190815260200160002060008282546118ec9190612510565b92505081905550816002600083815260200190815260200160002060006101000a81548173ffffffffffffffffffffffffffffffffffffffff021916908373ffffffffffffffffffffffffffffffffffffffff160217905550808273ffffffffffffffffffffffffffffffffffffffff16600073ffffffffffffffffffffffffffffffffffffffff167fddf252ad1be2c89b69c2b068fc378daa952ba7f163c4a11628f55a4df523b3ef60405160405180910390a46119ad60008383611410565b5050565b8280546119bd90612681565b90600052602060002090601f0160209004810192826119df5760008555611a26565b82601f106119f857805160ff1916838001178555611a26565b82800160010185558215611a26579182015b82811115611a25578251825591602001919060010190611a0a565b5b509050611a339190611a37565b5090565b5b80821115611a50576000816000905550600101611a38565b5090565b6000611a67611a628461246b565b612446565b905082815260208101848484011115611a7f57600080fd5b611a8a84828561263f565b509392505050565b6000611aa5611aa08461249c565b612446565b905082815260208101848484011115611abd57600080fd5b611ac884828561263f565b509392505050565b600081359050611adf81612cf8565b92915050565b600081359050611af481612d0f565b92915050565b600081359050611b0981612d26565b92915050565b600081519050611b1e81612d26565b92915050565b600082601f830112611b3557600080fd5b8135611b45848260208601611a54565b91505092915050565b600082601f830112611b5f57600080fd5b8135611b6f848260208601611a92565b91505092915050565b600081359050611b8781612d3d565b92915050565b600060208284031215611b9f57600080fd5b6000611bad84828501611ad0565b91505092915050565b60008060408385031215611bc957600080fd5b6000611bd785828601611ad0565b9250506020611be885828601611ad0565b9150509250929050565b600080600060608486031215611c0757600080fd5b6000611c1586828701611ad0565b9350506020611c2686828701611ad0565b9250506040611c3786828701611b78565b9150509250925092565b60008060008060808587031215611c5757600080fd5b6000611c6587828801611ad0565b9450506020611c7687828801611ad0565b9350506040611c8787828801611b78565b925050606085013567ffffffffffffffff811115611ca457600080fd5b611cb087828801611b24565b91505092959194509250565b60008060408385031215611ccf57600080fd5b6000611cdd85828601611ad0565b9250506020611cee85828601611ae5565b9150509250929050565b60008060408385031215611d0b57600080fd5b6000611d1985828601611ad0565b9250506020611d2a85828601611b78565b9150509250929050565b600060208284031215611d4657600080fd5b6000611d5484828501611afa565b91505092915050565b600060208284031215611d6f57600080fd5b6000611d7d84828501611b0f565b91505092915050565b600060208284031215611d9857600080fd5b600082013567ffffffffffffffff811115611db257600080fd5b611dbe84828501611b4e565b91505092915050565b600060208284031215611dd957600080fd5b6000611de784828501611b78565b91505092915050565b611df9816125cb565b82525050565b611e08816125dd565b82525050565b6000611e19826124cd565b611e2381856124e3565b9350611e3381856020860161264e565b611e3c8161281a565b840191505092915050565b6000611e52826124d8565b611e5c81856124f4565b9350611e6c81856020860161264e565b611e758161281a565b840191505092915050565b6000611e8b826124d8565b611e958185612505565b9350611ea581856020860161264e565b80840191505092915050565b6000611ebe6032836124f4565b9150611ec98261282b565b604082019050919050565b6000611ee16025836124f4565b9150611eec8261287a565b604082019050919050565b6000611f04601c836124f4565b9150611f0f826128c9565b602082019050919050565b6000611f276024836124f4565b9150611f32826128f2565b604082019050919050565b6000611f4a6019836124f4565b9150611f5582612941565b602082019050919050565b6000611f6d602c836124f4565b9150611f788261296a565b604082019050919050565b6000611f906038836124f4565b9150611f9b826129b9565b604082019050919050565b6000611fb3602a836124f4565b9150611fbe82612a08565b604082019050919050565b6000611fd66029836124f4565b9150611fe182612a57565b604082019050919050565b6000611ff9602e836124f4565b915061200482612aa6565b604082019050919050565b600061201c6020836124f4565b915061202782612af5565b602082019050919050565b600061203f6031836124f4565b915061204a82612b1e565b604082019050919050565b6000612062602c836124f4565b915061206d82612b6d565b604082019050919050565b6000612085602f836124f4565b915061209082612bbc565b604082019050919050565b60006120a86038836124f4565b91506120b382612c0b565b604082019050919050565b60006120cb6021836124f4565b91506120d682612c5a565b604082019050919050565b60006120ee6031836124f4565b91506120f982612ca9565b604082019050919050565b61210d81612635565b82525050565b600061211f8285611e80565b915061212b8284611e80565b91508190509392505050565b600060208201905061214c6000830184611df0565b92915050565b60006080820190506121676000830187611df0565b6121746020830186611df0565b6121816040830185612104565b81810360608301526121938184611e0e565b905095945050505050565b60006020820190506121b36000830184611dff565b92915050565b600060208201905081810360008301526121d38184611e47565b905092915050565b600060408201905081810360008301526121f58185611e47565b90506122046020830184612104565b9392505050565b6000602082019050818103600083015261222481611eb1565b9050919050565b6000602082019050818103600083015261224481611ed4565b9050919050565b6000602082019050818103600083015261226481611ef7565b9050919050565b6000602082019050818103600083015261228481611f1a565b9050919050565b600060208201905081810360008301526122a481611f3d565b9050919050565b600060208201905081810360008301526122c481611f60565b9050919050565b600060208201905081810360008301526122e481611f83565b9050919050565b6000602082019050818103600083015261230481611fa6565b9050919050565b6000602082019050818103600083015261232481611fc9565b9050919050565b6000602082019050818103600083015261234481611fec565b9050919050565b600060208201905081810360008301526123648161200f565b9050919050565b6000602082019050818103600083015261238481612032565b9050919050565b600060208201905081810360008301526123a481612055565b9050919050565b600060208201905081810360008301526123c481612078565b9050919050565b600060208201905081810360008301526123e48161209b565b9050919050565b60006020820190508181036000830152612404816120be565b9050919050565b60006020820190508181036000830152612424816120e1565b9050919050565b60006020820190506124406000830184612104565b92915050565b6000612450612461565b905061245c82826126b3565b919050565b6000604051905090565b600067ffffffffffffffff821115612486576124856127eb565b5b61248f8261281a565b9050602081019050919050565b600067ffffffffffffffff8211156124b7576124b66127eb565b5b6124c08261281a565b9050602081019050919050565b600081519050919050565b600081519050919050565b600082825260208201905092915050565b600082825260208201905092915050565b600081905092915050565b600061251b82612635565b915061252683612635565b9250827fffffffffffffffffffffffffffffffffffffffffffffffffffffffffffffffff0382111561255b5761255a61275e565b5b828201905092915050565b600061257182612635565b915061257c83612635565b92508261258c5761258b61278d565b5b828204905092915050565b60006125a282612635565b91506125ad83612635565b9250828210156125c0576125bf61275e565b5b828203905092915050565b60006125d682612615565b9050919050565b60008115159050919050565b60007fffffffff0000000000000000000000000000000000000000000000000000000082169050919050565b600073ffffffffffffffffffffffffffffffffffffffff82169050919050565b6000819050919050565b82818337600083830152505050565b60005b8381101561266c578082015181840152602081019050612651565b8381111561267b576000848401525b50505050565b6000600282049050600182168061269957607f821691505b602082108114156126ad576126ac6127bc565b5b50919050565b6126bc8261281a565b810181811067ffffffffffffffff821117156126db576126da6127eb565b5b80604052505050565b60006126ef82612635565b91507fffffffffffffffffffffffffffffffffffffffffffffffffffffffffffffffff8214156127225761272161275e565b5b600182019050919050565b600061273882612635565b915061274383612635565b9250826127535761275261278d565b5b828206905092915050565b7f4e487b7100000000000000000000000000000000000000000000000000000000600052601160045260246000fd5b7f4e487b7100000000000000000000000000000000000000000000000000000000600052601260045260246000fd5b7f4e487b7100000000000000000000000000000000000000000000000000000000600052602260045260246000fd5b7f4e487b7100000000000000000000000000000000000000000000000000000000600052604160045260246000fd5b6000601f19601f8301169050919050565b7f4552433732313a207472616e7366657220746f206e6f6e20455243373231526560008201527f63656976657220696d706c656d656e7465720000000000000000000000000000602082015250565b7f4552433732313a207472616e736665722066726f6d20696e636f72726563742060008201527f6f776e6572000000000000000000000000000000000000000000000000000000602082015250565b7f4552433732313a20746f6b656e20616c7265616479206d696e74656400000000600082015250565b7f4552433732313a207472616e7366657220746f20746865207a65726f2061646460008201527f7265737300000000000000000000000000000000000000000000000000000000602082015250565b7f4552433732313a20617070726f766520746f2063616c6c657200000000000000600082015250565b7f4552433732313a206f70657261746f7220717565727920666f72206e6f6e657860008201527f697374656e7420746f6b656e0000000000000000000000000000000000000000602082015250565b7f4552433732313a20617070726f76652063616c6c6572206973206e6f74206f7760008201527f6e6572206e6f7220617070726f76656420666f7220616c6c0000000000000000602082015250565b7f4552433732313a2062616c616e636520717565727920666f7220746865207a6560008201527f726f206164647265737300000000000000000000000000000000000000000000602082015250565b7f4552433732313a206f776e657220717565727920666f72206e6f6e657869737460008201527f656e7420746f6b656e0000000000000000000000000000000000000000000000602082015250565b7f45524337323155524953746f726167653a2055524920736574206f66206e6f6e60008201527f6578697374656e7420746f6b656e000000000000000000000000000000000000602082015250565b7f4552433732313a206d696e7420746f20746865207a65726f2061646472657373600082015250565b7f45524337323155524953746f726167653a2055524920717565727920666f722060008201527f6e6f6e6578697374656e7420746f6b656e000000000000000000000000000000602082015250565b7f4552433732313a20617070726f76656420717565727920666f72206e6f6e657860008201527f697374656e7420746f6b656e0000000000000000000000000000000000000000602082015250565b7f4552433732314d657461646174613a2055524920717565727920666f72206e6f60008201527f6e6578697374656e7420746f6b656e0000000000000000000000000000000000602082015250565b7f5573657220646f6e742068617665207065726d697373696f6e20746f206d696e60008201527f74204e465420696e207468697320636f6c6c656374696f6e0000000000000000602082015250565b7f4552433732313a20617070726f76616c20746f2063757272656e74206f776e6560008201527f7200000000000000000000000000000000000000000000000000000000000000602082015250565b7f4552433732313a207472616e736665722063616c6c6572206973206e6f74206f60008201527f776e6572206e6f7220617070726f766564000000000000000000000000000000602082015250565b612d01816125cb565b8114612d0c57600080fd5b50565b612d18816125dd565b8114612d2357600080fd5b50565b612d2f816125e9565b8114612d3a57600080fd5b50565b612d4681612635565b8114612d5157600080fd5b5056fea2646970667358221220c11e31d4e3ca673a64254ad77b850bd6acb2f7048439282393f0cee269fdaa3c64736f6c63430008040033a26469706673582212206c74be1983229e17ed9af5cab92662636dd9f8ffaffba88fac47bb69c8ae8b5a64736f6c63430008040033",
  "immutableReferences": {},
  "source": "pragma solidity ^0.8.3;\n\nimport \"./NFTCollection.sol\";\nimport \"@openzeppelin/contracts/utils/Counters.sol\";\n\ncontract NFTCollectionFactory {\n\n    event CreateCollection(address);\n\n    function create(string memory _name, string memory _symbol) public returns (address) {\n        NFTCollection newNft = new NFTCollection(msg.sender, _name, _symbol);\n        address newCollectionAddress = address(newNft);\n        emit CreateCollection(newCollectionAddress);\n        return newCollectionAddress;\n    }\n}",
  "sourcePath": "E:\\IdeaProject\\NftMarketplace\\nftmarket-smartcontract\\contracts\\NFTCollectionFactory.sol",
  "compiler": {
    "name": "solc",
    "version": "0.8.4+commit.c7e474f2.Emscripten.clang"
  },
  "schemaVersion": "3.4.7",
  "updatedAt": "2022-07-09T02:49:23.459Z",
  "networkType": "ethereum",
  "devdoc": {
    "kind": "dev",
    "methods": {},
    "version": 1
  },
  "userdoc": {
    "kind": "user",
    "methods": {},
    "version": 1
  }
}