{
  "contractName": "NFTMarketPlace",
  "abi": [
    {
      "inputs": [
        {
          "internalType": "address",
          "name": "_mpecTokenAddress",
          "type": "address"
        }
      ],
      "stateMutability": "nonpayable",
      "type": "constructor"
    },
    {
      "anonymous": false,
      "inputs": [
        {
          "indexed": false,
          "internalType": "uint256",
          "name": "",
          "type": "uint256"
        },
        {
          "indexed": false,
          "internalType": "address",
          "name": "",
          "type": "address"
        },
        {
          "indexed": false,
          "internalType": "uint256",
          "name": "",
          "type": "uint256"
        },
        {
          "indexed": false,
          "internalType": "address",
          "name": "",
          "type": "address"
        }
      ],
      "name": "BuyItem",
      "type": "event"
    },
    {
      "anonymous": false,
      "inputs": [
        {
          "indexed": false,
          "internalType": "uint256",
          "name": "",
          "type": "uint256"
        },
        {
          "indexed": false,
          "internalType": "address",
          "name": "",
          "type": "address"
        },
        {
          "indexed": false,
          "internalType": "uint256",
          "name": "",
          "type": "uint256"
        },
        {
          "indexed": false,
          "internalType": "uint256",
          "name": "",
          "type": "uint256"
        },
        {
          "indexed": false,
          "internalType": "address",
          "name": "",
          "type": "address"
        }
      ],
      "name": "ListItem",
      "type": "event"
    },
    {
      "inputs": [
        {
          "internalType": "uint256",
          "name": "",
          "type": "uint256"
        }
      ],
      "name": "itemMap",
      "outputs": [
        {
          "internalType": "uint256",
          "name": "itemId",
          "type": "uint256"
        },
        {
          "internalType": "uint256",
          "name": "tokenId",
          "type": "uint256"
        },
        {
          "internalType": "address",
          "name": "nftContract",
          "type": "address"
        },
        {
          "internalType": "uint256",
          "name": "price",
          "type": "uint256"
        },
        {
          "internalType": "uint256",
          "name": "status",
          "type": "uint256"
        },
        {
          "internalType": "address payable",
          "name": "owner",
          "type": "address"
        },
        {
          "internalType": "address payable",
          "name": "seller",
          "type": "address"
        }
      ],
      "stateMutability": "view",
      "type": "function",
      "constant": true
    },
    {
      "inputs": [
        {
          "internalType": "address",
          "name": "nftContract",
          "type": "address"
        },
        {
          "internalType": "uint256",
          "name": "tokenId",
          "type": "uint256"
        },
        {
          "internalType": "uint256",
          "name": "price",
          "type": "uint256"
        }
      ],
      "name": "listItem",
      "outputs": [
        {
          "internalType": "uint256",
          "name": "",
          "type": "uint256"
        }
      ],
      "stateMutability": "payable",
      "type": "function",
      "payable": true
    },
    {
      "inputs": [
        {
          "internalType": "uint256",
          "name": "_itemId",
          "type": "uint256"
        }
      ],
      "name": "buyItem",
      "outputs": [],
      "stateMutability": "payable",
      "type": "function",
      "payable": true
    },
    {
      "inputs": [
        {
          "internalType": "address",
          "name": "nftContract",
          "type": "address"
        },
        {
          "internalType": "uint256",
          "name": "_itemId",
          "type": "uint256"
        }
      ],
      "name": "cancelSelling",
      "outputs": [],
      "stateMutability": "nonpayable",
      "type": "function"
    },
    {
      "inputs": [
        {
          "internalType": "address",
          "name": "from",
          "type": "address"
        }
      ],
      "name": "checkIsOwner",
      "outputs": [
        {
          "internalType": "bool",
          "name": "",
          "type": "bool"
        }
      ],
      "stateMutability": "view",
      "type": "function",
      "constant": true
    }
  ],
  "bytecode": "0x60806040523480156200001157600080fd5b50604051620012bc380380620012bc8339818101604052810190620000379190620000d6565b336000806101000a81548173ffffffffffffffffffffffffffffffffffffffff021916908373ffffffffffffffffffffffffffffffffffffffff16021790555080600160006101000a81548173ffffffffffffffffffffffffffffffffffffffff021916908373ffffffffffffffffffffffffffffffffffffffff1602179055505062000150565b600081519050620000d08162000136565b92915050565b600060208284031215620000e957600080fd5b6000620000f984828501620000bf565b91505092915050565b60006200010f8262000116565b9050919050565b600073ffffffffffffffffffffffffffffffffffffffff82169050919050565b620001418162000102565b81146200014d57600080fd5b50565b61115c80620001606000396000f3fe60806040526004361061004a5760003560e01c806389bfd38f1461004f578063dc467f8e1461007f578063e222d797146100bc578063e7fb74c7146100e5578063fee6d33114610101575b600080fd5b61006960048036038101906100649190610bad565b610144565b6040516100769190610e2e565b60405180910390f35b34801561008b57600080fd5b506100a660048036038101906100a19190610b48565b6103e9565b6040516100b39190610d93565b60405180910390f35b3480156100c857600080fd5b506100e360048036038101906100de9190610b71565b610441565b005b6100ff60048036038101906100fa9190610c25565b610728565b005b34801561010d57600080fd5b5061012860048036038101906101239190610c25565b610a43565b60405161013b9796959493929190610ee1565b60405180910390f35b6000808211610188576040517f08c379a000000000000000000000000000000000000000000000000000000000815260040161017f90610e0e565b60405180910390fd5b60006101946002610ae5565b90506040518060e001604052808281526020018581526020018673ffffffffffffffffffffffffffffffffffffffff16815260200184815260200160018152602001600073ffffffffffffffffffffffffffffffffffffffff1681526020013373ffffffffffffffffffffffffffffffffffffffff1681525060036000838152602001908152602001600020600082015181600001556020820151816001015560408201518160020160006101000a81548173ffffffffffffffffffffffffffffffffffffffff021916908373ffffffffffffffffffffffffffffffffffffffff160217905550606082015181600301556080820151816004015560a08201518160050160006101000a81548173ffffffffffffffffffffffffffffffffffffffff021916908373ffffffffffffffffffffffffffffffffffffffff16021790555060c08201518160060160006101000a81548173ffffffffffffffffffffffffffffffffffffffff021916908373ffffffffffffffffffffffffffffffffffffffff16021790555090505061032a6002610af3565b60008590508073ffffffffffffffffffffffffffffffffffffffff166323b872dd3330886040518463ffffffff1660e01b815260040161036c93929190610d5c565b600060405180830381600087803b15801561038657600080fd5b505af115801561039a573d6000803e3d6000fd5b505050507f972c924cd2720a2ce217b19741bc8c43cb45ffc44b198a505540dabe5cc8b03682878787336040516103d5959493929190610e8e565b60405180910390a181925050509392505050565b60008173ffffffffffffffffffffffffffffffffffffffff1660008054906101000a900473ffffffffffffffffffffffffffffffffffffffff1673ffffffffffffffffffffffffffffffffffffffff16149050919050565b6000600360008381526020019081526020016000206040518060e001604052908160008201548152602001600182015481526020016002820160009054906101000a900473ffffffffffffffffffffffffffffffffffffffff1673ffffffffffffffffffffffffffffffffffffffff1673ffffffffffffffffffffffffffffffffffffffff16815260200160038201548152602001600482015481526020016005820160009054906101000a900473ffffffffffffffffffffffffffffffffffffffff1673ffffffffffffffffffffffffffffffffffffffff1673ffffffffffffffffffffffffffffffffffffffff1681526020016006820160009054906101000a900473ffffffffffffffffffffffffffffffffffffffff1673ffffffffffffffffffffffffffffffffffffffff1673ffffffffffffffffffffffffffffffffffffffff168152505090503373ffffffffffffffffffffffffffffffffffffffff168160c0015173ffffffffffffffffffffffffffffffffffffffff16146105ff576040517f08c379a00000000000000000000000000000000000000000000000000000000081526004016105f690610dee565b60405180910390fd5b6001816080015114610646576040517f08c379a000000000000000000000000000000000000000000000000000000000815260040161063d90610dae565b60405180910390fd5b6000600360008481526020019081526020016000206004018190555060008390508073ffffffffffffffffffffffffffffffffffffffff166323b872dd306003600087815260200190815260200160002060060160009054906101000a900473ffffffffffffffffffffffffffffffffffffffff1660036000888152602001908152602001600020600101546040518463ffffffff1660e01b81526004016106f093929190610d25565b600060405180830381600087803b15801561070a57600080fd5b505af115801561071e573d6000803e3d6000fd5b5050505050505050565b6001600360008381526020019081526020016000206004015414610781576040517f08c379a000000000000000000000000000000000000000000000000000000000815260040161077890610dce565b60405180910390fd5b60006003600083815260200190815260200160002060020160009054906101000a900473ffffffffffffffffffffffffffffffffffffffff1690508073ffffffffffffffffffffffffffffffffffffffff166323b872dd303360036000878152602001908152602001600020600101546040518463ffffffff1660e01b815260040161080f93929190610d5c565b600060405180830381600087803b15801561082957600080fd5b505af115801561083d573d6000803e3d6000fd5b505050506000600160009054906101000a900473ffffffffffffffffffffffffffffffffffffffff1690508073ffffffffffffffffffffffffffffffffffffffff166323b872dd336003600087815260200190815260200160002060060160009054906101000a900473ffffffffffffffffffffffffffffffffffffffff1660036000888152602001908152602001600020600301546040518463ffffffff1660e01b81526004016108f193929190610d25565b602060405180830381600087803b15801561090b57600080fd5b505af115801561091f573d6000803e3d6000fd5b505050506040513d601f19601f820116820180604052508101906109439190610bfc565b50336003600085815260200190815260200160002060050160006101000a81548173ffffffffffffffffffffffffffffffffffffffff021916908373ffffffffffffffffffffffffffffffffffffffff160217905550600060036000858152602001908152602001600020600401819055507ff209041aac45dc7408f376ff50928344cc2562a5bdd0bef06b05063980ae95d2836003600086815260200190815260200160002060020160009054906101000a900473ffffffffffffffffffffffffffffffffffffffff16600360008781526020019081526020016000206001015433604051610a369493929190610e49565b60405180910390a1505050565b60036020528060005260406000206000915090508060000154908060010154908060020160009054906101000a900473ffffffffffffffffffffffffffffffffffffffff16908060030154908060040154908060050160009054906101000a900473ffffffffffffffffffffffffffffffffffffffff16908060060160009054906101000a900473ffffffffffffffffffffffffffffffffffffffff16905087565b600081600001549050919050565b6001816000016000828254019250508190555050565b600081359050610b18816110e1565b92915050565b600081519050610b2d816110f8565b92915050565b600081359050610b428161110f565b92915050565b600060208284031215610b5a57600080fd5b6000610b6884828501610b09565b91505092915050565b60008060408385031215610b8457600080fd5b6000610b9285828601610b09565b9250506020610ba385828601610b33565b9150509250929050565b600080600060608486031215610bc257600080fd5b6000610bd086828701610b09565b9350506020610be186828701610b33565b9250506040610bf286828701610b33565b9150509250925092565b600060208284031215610c0e57600080fd5b6000610c1c84828501610b1e565b91505092915050565b600060208284031215610c3757600080fd5b6000610c4584828501610b33565b91505092915050565b610c5781610fbb565b82525050565b610c6681610f73565b82525050565b610c7581610f61565b82525050565b610c8481610f85565b82525050565b6000610c97602083610f50565b9150610ca282610ff1565b602082019050919050565b6000610cba601383610f50565b9150610cc58261101a565b602082019050919050565b6000610cdd602a83610f50565b9150610ce882611043565b604082019050919050565b6000610d00602183610f50565b9150610d0b82611092565b604082019050919050565b610d1f81610fb1565b82525050565b6000606082019050610d3a6000830186610c6c565b610d476020830185610c4e565b610d546040830184610d16565b949350505050565b6000606082019050610d716000830186610c6c565b610d7e6020830185610c6c565b610d8b6040830184610d16565b949350505050565b6000602082019050610da86000830184610c7b565b92915050565b60006020820190508181036000830152610dc781610c8a565b9050919050565b60006020820190508181036000830152610de781610cad565b9050919050565b60006020820190508181036000830152610e0781610cd0565b9050919050565b60006020820190508181036000830152610e2781610cf3565b9050919050565b6000602082019050610e436000830184610d16565b92915050565b6000608082019050610e5e6000830187610d16565b610e6b6020830186610c6c565b610e786040830185610d16565b610e856060830184610c6c565b95945050505050565b600060a082019050610ea36000830188610d16565b610eb06020830187610c6c565b610ebd6040830186610d16565b610eca6060830185610d16565b610ed76080830184610c6c565b9695505050505050565b600060e082019050610ef6600083018a610d16565b610f036020830189610d16565b610f106040830188610c6c565b610f1d6060830187610d16565b610f2a6080830186610d16565b610f3760a0830185610c5d565b610f4460c0830184610c5d565b98975050505050505050565b600082825260208201905092915050565b6000610f6c82610f91565b9050919050565b6000610f7e82610f91565b9050919050565b60008115159050919050565b600073ffffffffffffffffffffffffffffffffffffffff82169050919050565b6000819050919050565b6000610fc682610fcd565b9050919050565b6000610fd882610fdf565b9050919050565b6000610fea82610f91565b9050919050565b7f54686973206974656d206973206e6f7420696e2073656c6c696e67206c697374600082015250565b7f4974656d206973206e6f7420666f722062757900000000000000000000000000600082015250565b7f5573657220646f6e742068617665207065726d697373696f6e20746f2063616c60008201527f6c2066756e6374696f6e00000000000000000000000000000000000000000000602082015250565b7f5072696365206d757374206265206174206c656173746464646464203120776560008201527f6900000000000000000000000000000000000000000000000000000000000000602082015250565b6110ea81610f61565b81146110f557600080fd5b50565b61110181610f85565b811461110c57600080fd5b50565b61111881610fb1565b811461112357600080fd5b5056fea2646970667358221220ba5de7fdd8377773f513524d435d740f4d8992bb7b9c920221606287ebc3f1f664736f6c63430008040033",
  "immutableReferences": {},
  "source": "pragma solidity ^0.8.3;\r\nimport \"@openzeppelin/contracts/utils/Counters.sol\";\r\nimport \"./NFTCollection.sol\";\r\nimport \"./MpecToken.sol\";\r\n\r\ncontract NFTMarketPlace{\r\n\r\n    uint private constant MINTED = 0;\r\n    uint private constant LISTING = 1;\r\n\r\n    address private owner;\r\n\r\n    address private mpecTokenAddress;\r\n\r\n    using Counters for Counters.Counter;\r\n    Counters.Counter private itemIds;\r\n\r\n    struct NftItem {\r\n        uint itemId;\r\n        uint tokenId;\r\n        address nftContract;\r\n        uint price;\r\n        uint status;\r\n        address payable owner;\r\n        address payable seller;\r\n    }\r\n\r\n    event ListItem(uint, address, uint, uint, address);\r\n\r\n    event BuyItem(uint, address, uint, address);\r\n\r\n    mapping(uint => NftItem) public itemMap;\r\n\r\n    constructor(address _mpecTokenAddress){\r\n        owner = msg.sender;\r\n        mpecTokenAddress = _mpecTokenAddress;\r\n    }\r\n\r\n    function listItem(\r\n        address nftContract,\r\n        uint tokenId,\r\n        uint price\r\n    ) public payable returns (uint) {\r\n        require(price > 0, \"Price must be at leastddddd 1 wei\");\r\n\r\n        uint currentItemId = itemIds.current();\r\n\r\n        itemMap[currentItemId] = NftItem(\r\n            currentItemId,\r\n            tokenId,\r\n            nftContract,\r\n            price,\r\n            LISTING,\r\n            payable(address(0)),\r\n            payable(msg.sender)\r\n        );\r\n        itemIds.increment();\r\n\r\n        NFTCollection collection = NFTCollection(nftContract);\r\n        collection.transferFrom(msg.sender, address(this), tokenId);\r\n\r\n        emit ListItem(currentItemId, nftContract, tokenId, price, msg.sender);\r\n\r\n        return currentItemId;\r\n    }\r\n\r\n    function buyItem(uint _itemId) public payable  {\r\n\r\n        if(itemMap[_itemId].status != LISTING){\r\n            revert(\"Item is not for buy\");\r\n        }\r\n\r\n        // chuyen NFT\r\n        NFTCollection collection = NFTCollection(itemMap[_itemId].nftContract);\r\n        collection.transferFrom(address(this), msg.sender, itemMap[_itemId].tokenId);\r\n\r\n        // chuyen token\r\n        MpecToken mpecToken = MpecToken(mpecTokenAddress);\r\n        mpecToken.transferFrom(msg.sender, itemMap[_itemId].seller, itemMap[_itemId].price);\r\n        \r\n        itemMap[_itemId].owner = payable(msg.sender);\r\n\r\n        itemMap[_itemId].status = MINTED;\r\n\r\n        emit BuyItem(_itemId, itemMap[_itemId].nftContract, itemMap[_itemId].tokenId, msg.sender);\r\n    }\r\n\r\n    function cancelSelling(address nftContract, uint _itemId) public {\r\n        \r\n        NftItem memory item = itemMap[_itemId];\r\n\r\n        require(item.seller == msg.sender, \"User dont have permission to call function\");\r\n        require(item.status == LISTING, \"This item is not in selling list\");\r\n\r\n        itemMap[_itemId].status = MINTED;\r\n\r\n        NFTCollection collection = NFTCollection(nftContract);\r\n        collection.transferFrom(address(this), itemMap[_itemId].seller, itemMap[_itemId].tokenId);\r\n    }\r\n\r\n    function checkIsOwner(address from) public view returns (bool){\r\n        return owner == from;\r\n    }\r\n\r\n}",
  "sourcePath": "E:\\IdeaProject\\NftMarketplace\\nftmarket-smartcontract\\contracts\\NFTMarketplace.sol",
  "compiler": {
    "name": "solc",
    "version": "0.8.4+commit.c7e474f2.Emscripten.clang"
  },
  "schemaVersion": "3.4.7",
  "updatedAt": "2022-07-26T10:32:38.926Z",
  "networkType": "ethereum",
  "devdoc": {
    "kind": "dev",
    "methods": {},
    "version": 1
  },
  "userdoc": {
    "kind": "user",
    "methods": {},
    "version": 1
  }
}